{
  "contractName": "Lottery",
  "abi": [
    {
      "inputs": [],
      "stateMutability": "nonpayable",
      "type": "constructor"
    },
    {
      "anonymous": false,
      "inputs": [
        {
          "indexed": true,
          "internalType": "address",
          "name": "user",
          "type": "address"
        },
        {
          "indexed": false,
          "internalType": "uint256",
          "name": "tokenId",
          "type": "uint256"
        }
      ],
      "name": "Buy",
      "type": "event"
    },
    {
      "anonymous": false,
      "inputs": [
        {
          "indexed": true,
          "internalType": "address",
          "name": "user",
          "type": "address"
        },
        {
          "indexed": false,
          "internalType": "uint256",
          "name": "tokenid",
          "type": "uint256"
        },
        {
          "indexed": false,
          "internalType": "uint256",
          "name": "amount",
          "type": "uint256"
        }
      ],
      "name": "Claim",
      "type": "event"
    },
    {
      "anonymous": false,
      "inputs": [
        {
          "indexed": true,
          "internalType": "address",
          "name": "user",
          "type": "address"
        },
        {
          "indexed": false,
          "internalType": "uint256",
          "name": "amount",
          "type": "uint256"
        }
      ],
      "name": "DevWithdraw",
      "type": "event"
    },
    {
      "anonymous": false,
      "inputs": [
        {
          "indexed": true,
          "internalType": "uint256",
          "name": "issueIndex",
          "type": "uint256"
        },
        {
          "indexed": false,
          "internalType": "uint8[4]",
          "name": "winningNumbers",
          "type": "uint8[4]"
        }
      ],
      "name": "Drawing",
      "type": "event"
    },
    {
      "anonymous": false,
      "inputs": [
        {
          "indexed": true,
          "internalType": "address",
          "name": "user",
          "type": "address"
        },
        {
          "indexed": false,
          "internalType": "uint256",
          "name": "amount",
          "type": "uint256"
        }
      ],
      "name": "MultiBuy",
      "type": "event"
    },
    {
      "anonymous": false,
      "inputs": [
        {
          "indexed": true,
          "internalType": "address",
          "name": "user",
          "type": "address"
        },
        {
          "indexed": false,
          "internalType": "uint256",
          "name": "amount",
          "type": "uint256"
        }
      ],
      "name": "MultiClaim",
      "type": "event"
    },
    {
      "anonymous": false,
      "inputs": [
        {
          "indexed": true,
          "internalType": "address",
          "name": "previousOwner",
          "type": "address"
        },
        {
          "indexed": true,
          "internalType": "address",
          "name": "newOwner",
          "type": "address"
        }
      ],
      "name": "OwnershipTransferred",
      "type": "event"
    },
    {
      "anonymous": false,
      "inputs": [
        {
          "indexed": true,
          "internalType": "uint256",
          "name": "issueIndex",
          "type": "uint256"
        }
      ],
      "name": "Reset",
      "type": "event"
    },
    {
      "anonymous": false,
      "inputs": [
        {
          "indexed": true,
          "internalType": "address",
          "name": "user",
          "type": "address"
        },
        {
          "indexed": true,
          "internalType": "address",
          "name": "admin",
          "type": "address"
        }
      ],
      "name": "SetAdmin",
      "type": "event"
    },
    {
      "anonymous": false,
      "inputs": [
        {
          "indexed": true,
          "internalType": "address",
          "name": "user",
          "type": "address"
        },
        {
          "indexed": false,
          "internalType": "uint8",
          "name": "allocation1",
          "type": "uint8"
        },
        {
          "indexed": false,
          "internalType": "uint8",
          "name": "allocation2",
          "type": "uint8"
        },
        {
          "indexed": false,
          "internalType": "uint8",
          "name": "allocation3",
          "type": "uint8"
        }
      ],
      "name": "SetAllocation",
      "type": "event"
    },
    {
      "anonymous": false,
      "inputs": [
        {
          "indexed": true,
          "internalType": "address",
          "name": "user",
          "type": "address"
        },
        {
          "indexed": false,
          "internalType": "uint256",
          "name": "number",
          "type": "uint256"
        }
      ],
      "name": "SetMaxNumber",
      "type": "event"
    },
    {
      "anonymous": false,
      "inputs": [
        {
          "indexed": true,
          "internalType": "address",
          "name": "user",
          "type": "address"
        },
        {
          "indexed": false,
          "internalType": "uint256",
          "name": "price",
          "type": "uint256"
        }
      ],
      "name": "SetMinPrice",
      "type": "event"
    },
    {
      "inputs": [],
      "name": "adminAddress",
      "outputs": [
        {
          "internalType": "address",
          "name": "",
          "type": "address"
        }
      ],
      "stateMutability": "view",
      "type": "function"
    },
    {
      "inputs": [
        {
          "internalType": "uint256",
          "name": "",
          "type": "uint256"
        }
      ],
      "name": "allocation",
      "outputs": [
        {
          "internalType": "uint8",
          "name": "",
          "type": "uint8"
        }
      ],
      "stateMutability": "view",
      "type": "function"
    },
    {
      "inputs": [],
      "name": "drawingPhase",
      "outputs": [
        {
          "internalType": "bool",
          "name": "",
          "type": "bool"
        }
      ],
      "stateMutability": "view",
      "type": "function"
    },
    {
      "inputs": [],
      "name": "egg",
      "outputs": [
        {
          "internalType": "contract IBEP20",
          "name": "",
          "type": "address"
        }
      ],
      "stateMutability": "view",
      "type": "function"
    },
    {
      "inputs": [
        {
          "internalType": "uint256",
          "name": "",
          "type": "uint256"
        },
        {
          "internalType": "uint256",
          "name": "",
          "type": "uint256"
        }
      ],
      "name": "historyAmount",
      "outputs": [
        {
          "internalType": "uint256",
          "name": "",
          "type": "uint256"
        }
      ],
      "stateMutability": "view",
      "type": "function"
    },
    {
      "inputs": [
        {
          "internalType": "uint256",
          "name": "",
          "type": "uint256"
        },
        {
          "internalType": "uint256",
          "name": "",
          "type": "uint256"
        }
      ],
      "name": "historyNumbers",
      "outputs": [
        {
          "internalType": "uint8",
          "name": "",
          "type": "uint8"
        }
      ],
      "stateMutability": "view",
      "type": "function"
    },
    {
      "inputs": [],
      "name": "issueIndex",
      "outputs": [
        {
          "internalType": "uint256",
          "name": "",
          "type": "uint256"
        }
      ],
      "stateMutability": "view",
      "type": "function"
    },
    {
      "inputs": [],
      "name": "lastTimestamp",
      "outputs": [
        {
          "internalType": "uint256",
          "name": "",
          "type": "uint256"
        }
      ],
      "stateMutability": "view",
      "type": "function"
    },
    {
      "inputs": [
        {
          "internalType": "uint256",
          "name": "",
          "type": "uint256"
        },
        {
          "internalType": "uint256",
          "name": "",
          "type": "uint256"
        }
      ],
      "name": "lotteryInfo",
      "outputs": [
        {
          "internalType": "uint256",
          "name": "",
          "type": "uint256"
        }
      ],
      "stateMutability": "view",
      "type": "function"
    },
    {
      "inputs": [],
      "name": "lotteryNFT",
      "outputs": [
        {
          "internalType": "contract LotteryNFT",
          "name": "",
          "type": "address"
        }
      ],
      "stateMutability": "view",
      "type": "function"
    },
    {
      "inputs": [],
      "name": "maxNumber",
      "outputs": [
        {
          "internalType": "uint8",
          "name": "",
          "type": "uint8"
        }
      ],
      "stateMutability": "view",
      "type": "function"
    },
    {
      "inputs": [],
      "name": "minPrice",
      "outputs": [
        {
          "internalType": "uint256",
          "name": "",
          "type": "uint256"
        }
      ],
      "stateMutability": "view",
      "type": "function"
    },
    {
      "inputs": [],
      "name": "owner",
      "outputs": [
        {
          "internalType": "address",
          "name": "",
          "type": "address"
        }
      ],
      "stateMutability": "view",
      "type": "function"
    },
    {
      "inputs": [],
      "name": "renounceOwnership",
      "outputs": [],
      "stateMutability": "nonpayable",
      "type": "function"
    },
    {
      "inputs": [],
      "name": "totalAddresses",
      "outputs": [
        {
          "internalType": "uint256",
          "name": "",
          "type": "uint256"
        }
      ],
      "stateMutability": "view",
      "type": "function"
    },
    {
      "inputs": [],
      "name": "totalAmount",
      "outputs": [
        {
          "internalType": "uint256",
          "name": "",
          "type": "uint256"
        }
      ],
      "stateMutability": "view",
      "type": "function"
    },
    {
      "inputs": [
        {
          "internalType": "address",
          "name": "newOwner",
          "type": "address"
        }
      ],
      "name": "transferOwnership",
      "outputs": [],
      "stateMutability": "nonpayable",
      "type": "function"
    },
    {
      "inputs": [
        {
          "internalType": "uint256",
          "name": "",
          "type": "uint256"
        },
        {
          "internalType": "uint64",
          "name": "",
          "type": "uint64"
        }
      ],
      "name": "userBuyAmountSum",
      "outputs": [
        {
          "internalType": "uint256",
          "name": "",
          "type": "uint256"
        }
      ],
      "stateMutability": "view",
      "type": "function"
    },
    {
      "inputs": [
        {
          "internalType": "address",
          "name": "",
          "type": "address"
        },
        {
          "internalType": "uint256",
          "name": "",
          "type": "uint256"
        }
      ],
      "name": "userInfo",
      "outputs": [
        {
          "internalType": "uint256",
          "name": "",
          "type": "uint256"
        }
      ],
      "stateMutability": "view",
      "type": "function"
    },
    {
      "inputs": [
        {
          "internalType": "uint256",
          "name": "",
          "type": "uint256"
        }
      ],
      "name": "winningNumbers",
      "outputs": [
        {
          "internalType": "uint8",
          "name": "",
          "type": "uint8"
        }
      ],
      "stateMutability": "view",
      "type": "function"
    },
    {
      "inputs": [
        {
          "internalType": "contract IBEP20",
          "name": "_egg",
          "type": "address"
        },
        {
          "internalType": "contract LotteryNFT",
          "name": "_lottery",
          "type": "address"
        },
        {
          "internalType": "uint256",
          "name": "_minPrice",
          "type": "uint256"
        },
        {
          "internalType": "uint8",
          "name": "_maxNumber",
          "type": "uint8"
        },
        {
          "internalType": "address",
          "name": "_adminAddress",
          "type": "address"
        }
      ],
      "name": "initialize",
      "outputs": [],
      "stateMutability": "nonpayable",
      "type": "function"
    },
    {
      "inputs": [],
      "name": "drawed",
      "outputs": [
        {
          "internalType": "bool",
          "name": "",
          "type": "bool"
        }
      ],
      "stateMutability": "view",
      "type": "function"
    },
    {
      "inputs": [],
      "name": "reset",
      "outputs": [],
      "stateMutability": "nonpayable",
      "type": "function"
    },
    {
      "inputs": [],
      "name": "enterDrawingPhase",
      "outputs": [],
      "stateMutability": "nonpayable",
      "type": "function"
    },
    {
      "inputs": [
        {
          "internalType": "uint256",
          "name": "_externalRandomNumber",
          "type": "uint256"
        }
      ],
      "name": "drawing",
      "outputs": [],
      "stateMutability": "nonpayable",
      "type": "function"
    },
    {
      "inputs": [
        {
          "internalType": "uint256",
          "name": "_price",
          "type": "uint256"
        },
        {
          "internalType": "uint8[4]",
          "name": "_numbers",
          "type": "uint8[4]"
        }
      ],
      "name": "buy",
      "outputs": [],
      "stateMutability": "nonpayable",
      "type": "function"
    },
    {
      "inputs": [
        {
          "internalType": "uint256",
          "name": "_price",
          "type": "uint256"
        },
        {
          "internalType": "uint8[4][]",
          "name": "_numbers",
          "type": "uint8[4][]"
        }
      ],
      "name": "multiBuy",
      "outputs": [],
      "stateMutability": "nonpayable",
      "type": "function"
    },
    {
      "inputs": [
        {
          "internalType": "uint256",
          "name": "_tokenId",
          "type": "uint256"
        }
      ],
      "name": "claimReward",
      "outputs": [],
      "stateMutability": "nonpayable",
      "type": "function"
    },
    {
      "inputs": [
        {
          "internalType": "uint256[]",
          "name": "_tickets",
          "type": "uint256[]"
        }
      ],
      "name": "multiClaim",
      "outputs": [],
      "stateMutability": "nonpayable",
      "type": "function"
    },
    {
      "inputs": [
        {
          "internalType": "uint8[4]",
          "name": "number",
          "type": "uint8[4]"
        }
      ],
      "name": "generateCombinations",
      "outputs": [
        {
          "internalType": "uint32[11]",
          "name": "",
          "type": "uint32[11]"
        }
      ],
      "stateMutability": "pure",
      "type": "function"
    },
    {
      "inputs": [
        {
          "internalType": "uint256",
          "name": "_issueIndex",
          "type": "uint256"
        },
        {
          "internalType": "uint256",
          "name": "_matchingNumber",
          "type": "uint256"
        }
      ],
      "name": "getMatchingRewardAmount",
      "outputs": [
        {
          "internalType": "uint256",
          "name": "",
          "type": "uint256"
        }
      ],
      "stateMutability": "view",
      "type": "function"
    },
    {
      "inputs": [
        {
          "internalType": "uint256",
          "name": "_issueIndex",
          "type": "uint256"
        }
      ],
      "name": "getTotalRewards",
      "outputs": [
        {
          "internalType": "uint256",
          "name": "",
          "type": "uint256"
        }
      ],
      "stateMutability": "view",
      "type": "function"
    },
    {
      "inputs": [
        {
          "internalType": "uint256",
          "name": "_tokenId",
          "type": "uint256"
        }
      ],
      "name": "getRewardView",
      "outputs": [
        {
          "internalType": "uint256",
          "name": "",
          "type": "uint256"
        }
      ],
      "stateMutability": "view",
      "type": "function"
    },
    {
      "inputs": [
        {
          "internalType": "address",
          "name": "_adminAddress",
          "type": "address"
        }
      ],
      "name": "setAdmin",
      "outputs": [],
      "stateMutability": "nonpayable",
      "type": "function"
    },
    {
      "inputs": [
        {
          "internalType": "uint256",
          "name": "_amount",
          "type": "uint256"
        }
      ],
      "name": "adminWithdraw",
      "outputs": [],
      "stateMutability": "nonpayable",
      "type": "function"
    },
    {
      "inputs": [
        {
          "internalType": "uint256",
          "name": "_price",
          "type": "uint256"
        }
      ],
      "name": "setMinPrice",
      "outputs": [],
      "stateMutability": "nonpayable",
      "type": "function"
    },
    {
      "inputs": [
        {
          "internalType": "uint8",
          "name": "_maxNumber",
          "type": "uint8"
        }
      ],
      "name": "setMaxNumber",
      "outputs": [],
      "stateMutability": "nonpayable",
      "type": "function"
    },
    {
      "inputs": [
        {
          "internalType": "uint8",
          "name": "_allcation1",
          "type": "uint8"
        },
        {
          "internalType": "uint8",
          "name": "_allcation2",
          "type": "uint8"
        },
        {
          "internalType": "uint8",
          "name": "_allcation3",
          "type": "uint8"
        }
      ],
      "name": "setAllocation",
      "outputs": [],
      "stateMutability": "nonpayable",
      "type": "function"
    }
  ],
  "bytecode": "0x60806040526000606f55600060705560006071556040518060800160405280600060ff168152602001600060ff168152602001600060ff168152602001600060ff168152506075906004620000569291906200006b565b503480156200006457600080fd5b5062000136565b826004601f01602090048101928215620000f95791602002820160005b83821115620000c857835183826101000a81548160ff021916908360ff160217905550926020019260010160208160000104928301926001030262000088565b8015620000f75782816101000a81549060ff0219169055600101602081600001049283019260010302620000c8565b505b5090506200010891906200010c565b5090565b5b808211156200013257600081816101000a81549060ff0219169055506001016200010d565b5090565b61553480620001466000396000f3fe608060405234801561001057600080fd5b50600436106102325760003560e01c8063704b6c0211610130578063cfad5277116100b8578063e13454161161007c578063e134541614610b48578063e45be8eb14610b68578063e8adfbc714610b86578063f2fde38b14610bba578063fc6f946814610bfe57610232565b8063cfad5277146109f7578063d1f7dbcf14610a15578063d411b0fa14610a61578063d826f88f14610aa3578063dc41825b14610aad57610232565b80638da5cb5b116100ff5780638da5cb5b146108e7578063a42206c91461091b578063ae169a5014610949578063c06abfc714610977578063c39f49c0146109ab57610232565b8063704b6c0214610826578063715018a61461086a5780637c5b4a3714610874578063850bad94146108a257610232565b8063438209f5116101be57806359bcbd681161018257806359bcbd68146106f45780635c17623a146107435780635ea8cd121461078e5780636575243f146107bc5780636a28f8281461080857610232565b8063438209f5146104f45780634e45f095146105145780634ed73d2814610559578063552164ee14610611578063569337191461065357610232565b806321ce919d1161020557806321ce919d146102ec5780632bdff8511461034e5780632f506b201461044c578063324a5562146104a25780633a4f6999146104d357610232565b806314c20d571461023757806319d8ac61146102a65780631a39d8ef146102c45780631ff68866146102e2575b600080fd5b6102a4600480360360a081101561024d57600080fd5b810190808035906020019092919080608001906004806020026040519081016040528092919082600460200280828437600081840152601f19601f8201169050808301925050505050509192919290505050610c32565b005b6102ae610e58565b6040518082815260200191505060405180910390f35b6102cc610e5e565b6040518082815260200191505060405180910390f35b6102ea610e64565b005b6103386004803603604081101561030257600080fd5b81019080803573ffffffffffffffffffffffffffffffffffffffff16906020019092919080359060200190929190505050610fbf565b6040518082815260200191505060405180910390f35b61044a6004803603604081101561036457600080fd5b81019080803590602001909291908035906020019064010000000081111561038b57600080fd5b82018360208201111561039d57600080fd5b803590602001918460808302840111640100000000831117156103bf57600080fd5b9190808060200260200160405190810160405280939291908181526020016000905b82821015610438578484839050608002016004806020026040519081016040528092919082600460200280828437600081840152601f19601f820116905080830192505050505050815260200190600101906103e1565b50505050509192919290505050610fed565b005b61048c6004803603604081101561046257600080fd5b8101908080359060200190929190803567ffffffffffffffff1690602001909291905050506111d0565b6040518082815260200191505060405180910390f35b6104d1600480360360208110156104b857600080fd5b81019080803560ff1690602001909291905050506111f5565b005b6104db611327565b604051808260ff16815260200191505060405180910390f35b6104fc61133a565b60405180821515815260200191505060405180910390f35b6105406004803603602081101561052a57600080fd5b810190808035906020019092919050505061134d565b604051808260ff16815260200191505060405180910390f35b61060f6004803603602081101561056f57600080fd5b810190808035906020019064010000000081111561058c57600080fd5b82018360208201111561059e57600080fd5b803590602001918460208302840111640100000000831117156105c057600080fd5b919080806020026020016040519081016040528093929190818152602001838360200280828437600081840152601f19601f820116905080830192505050505050509192919290505050611374565b005b61063d6004803603602081101561062757600080fd5b8101908080359060200190929190505050611798565b6040518082815260200191505060405180910390f35b6106b66004803603608081101561066957600080fd5b8101908080608001906004806020026040519081016040528092919082600460200280828437600081840152601f19601f8201169050808301925050505050509192919290505050611869565b6040518082600b60200280838360005b838110156106e15780820151818401526020810190506106c6565b5050505090500191505060405180910390f35b61072a6004803603604081101561070a57600080fd5b810190808035906020019092919080359060200190929190505050611ab8565b604051808260ff16815260200191505060405180910390f35b61078c6004803603606081101561075957600080fd5b81019080803560ff169060200190929190803560ff169060200190929190803560ff169060200190929190505050611aee565b005b6107ba600480360360208110156107a457600080fd5b8101908080359060200190929190505050611c5b565b005b6107f2600480360360408110156107d257600080fd5b810190808035906020019092919080359060200190929190505050611d76565b6040518082815260200191505060405180910390f35b610810611da4565b6040518082815260200191505060405180910390f35b6108686004803603602081101561083c57600080fd5b81019080803573ffffffffffffffffffffffffffffffffffffffff169060200190929190505050611daa565b005b610872611f31565b005b6108a06004803603602081101561088a57600080fd5b81019080803590602001909291905050506120a1565b005b6108ce600480360360208110156108b857600080fd5b8101908080359060200190929190505050612202565b604051808260ff16815260200191505060405180910390f35b6108ef612229565b604051808273ffffffffffffffffffffffffffffffffffffffff16815260200191505060405180910390f35b6109476004803603602081101561093157600080fd5b8101908080359060200190929190505050612253565b005b6109756004803603602081101561095f57600080fd5b810190808035906020019092919050505061274a565b005b61097f612ac1565b604051808273ffffffffffffffffffffffffffffffffffffffff16815260200191505060405180910390f35b6109e1600480360360408110156109c157600080fd5b810190808035906020019092919080359060200190929190505050612ae7565b6040518082815260200191505060405180910390f35b6109ff612b15565b6040518082815260200191505060405180910390f35b610a4b60048036036040811015610a2b57600080fd5b810190808035906020019092919080359060200190929190505050612b1b565b6040518082815260200191505060405180910390f35b610a8d60048036036020811015610a7757600080fd5b8101908080359060200190929190505050612bd5565b6040518082815260200191505060405180910390f35b610aab613025565b005b610b46600480360360a0811015610ac357600080fd5b81019080803573ffffffffffffffffffffffffffffffffffffffff169060200190929190803573ffffffffffffffffffffffffffffffffffffffff16906020019092919080359060200190929190803560ff169060200190929190803573ffffffffffffffffffffffffffffffffffffffff169060200190929190505050613375565b005b610b506135de565b60405180821515815260200191505060405180910390f35b610b7061360f565b6040518082815260200191505060405180910390f35b610b8e613615565b604051808273ffffffffffffffffffffffffffffffffffffffff16815260200191505060405180910390f35b610bfc60048036036020811015610bd057600080fd5b81019080803573ffffffffffffffffffffffffffffffffffffffff16906020019092919050505061363b565b005b610c06613830565b604051808273ffffffffffffffffffffffffffffffffffffffff16815260200191505060405180910390f35b610c3a6135de565b15610cad576040517f08c379a00000000000000000000000000000000000000000000000000000000081526004018080602001828103825260178152602001807f6472617765642c2063616e206e6f7420627579206e6f7700000000000000000081525060200191505060405180910390fd5b607460009054906101000a900460ff1615610d30576040517f08c379a00000000000000000000000000000000000000000000000000000000081526004018080602001828103825260188152602001807f64726177696e672c2063616e206e6f7420627579206e6f77000000000000000081525060200191505060405180910390fd5b606954821015610da8576040517f08c379a00000000000000000000000000000000000000000000000000000000081526004018080602001828103825260198152602001807f7072696365206d7573742061626f7665206d696e50726963650000000000000081525060200191505060405180910390fd5b6000610db48383613856565b9050610e05333085606660009054906101000a900473ffffffffffffffffffffffffffffffffffffffff1673ffffffffffffffffffffffffffffffffffffffff16613c16909392919063ffffffff16565b3373ffffffffffffffffffffffffffffffffffffffff167fe3d4187f6ca4248660cc0ac8b8056515bac4a8132be2eca31d6d0cc170722a7e826040518082815260200191505060405180910390a2505050565b60725481565b60715481565b606860009054906101000a900473ffffffffffffffffffffffffffffffffffffffff1673ffffffffffffffffffffffffffffffffffffffff163373ffffffffffffffffffffffffffffffffffffffff1614610f27576040517f08c379a000000000000000000000000000000000000000000000000000000000815260040180806020018281038252600b8152602001807f61646d696e3a207775743f00000000000000000000000000000000000000000081525060200191505060405180910390fd5b610f2f6135de565b15610fa2576040517f08c379a00000000000000000000000000000000000000000000000000000000081526004018080602001828103825260068152602001807f647261776564000000000000000000000000000000000000000000000000000081525060200191505060405180910390fd5b6001607460006101000a81548160ff021916908315150217905550565b606e6020528160005260406000208181548110610fd857fe5b90600052602060002001600091509150505481565b610ff56135de565b15611068576040517f08c379a00000000000000000000000000000000000000000000000000000000081526004018080602001828103825260178152602001807f6472617765642c2063616e206e6f7420627579206e6f7700000000000000000081525060200191505060405180910390fd5b6069548210156110e0576040517f08c379a00000000000000000000000000000000000000000000000000000000081526004018080602001828103825260198152602001807f7072696365206d7573742061626f7665206d696e50726963650000000000000081525060200191505060405180910390fd5b6000805b825181101561112d5761110a848483815181106110fd57fe5b6020026020010151613856565b5061111e8483613cd790919063ffffffff16565b915080806001019150506110e4565b5061117d333083606660009054906101000a900473ffffffffffffffffffffffffffffffffffffffff1673ffffffffffffffffffffffffffffffffffffffff16613c16909392919063ffffffff16565b3373ffffffffffffffffffffffffffffffffffffffff167f96c35ad1cc1743f26cb87980c38042de8082358ec6d171a7986d6e11dddfe857826040518082815260200191505060405180910390a2505050565b606d602052816000526040600020602052806000526040600020600091509150505481565b606860009054906101000a900473ffffffffffffffffffffffffffffffffffffffff1673ffffffffffffffffffffffffffffffffffffffff163373ffffffffffffffffffffffffffffffffffffffff16146112b8576040517f08c379a000000000000000000000000000000000000000000000000000000000815260040180806020018281038252600b8152602001807f61646d696e3a207775743f00000000000000000000000000000000000000000081525060200191505060405180910390fd5b80606860146101000a81548160ff021916908360ff1602179055503373ffffffffffffffffffffffffffffffffffffffff167f506d53b52bc18bc1700b98da33af73e7e3ac7eab9dc8ccdc73f311b91e17443f82604051808260ff16815260200191505060405180910390a250565b606860149054906101000a900460ff1681565b607460009054906101000a900460ff1681565b6073816004811061135a57fe5b60209182820401919006915054906101000a900460ff1681565b6000805b825181101561166357606760009054906101000a900473ffffffffffffffffffffffffffffffffffffffff1673ffffffffffffffffffffffffffffffffffffffff16636352211e8483815181106113cb57fe5b60200260200101516040518263ffffffff1660e01b81526004018082815260200191505060206040518083038186803b15801561140757600080fd5b505afa15801561141b573d6000803e3d6000fd5b505050506040513d602081101561143157600080fd5b810190808051906020019092919050505073ffffffffffffffffffffffffffffffffffffffff163373ffffffffffffffffffffffffffffffffffffffff16146114e2576040517f08c379a000000000000000000000000000000000000000000000000000000000815260040180806020018281038252600e8152602001807f6e6f742066726f6d206f776e657200000000000000000000000000000000000081525060200191505060405180910390fd5b606760009054906101000a900473ffffffffffffffffffffffffffffffffffffffff1673ffffffffffffffffffffffffffffffffffffffff166336dbd2f984838151811061152c57fe5b60200260200101516040518263ffffffff1660e01b81526004018082815260200191505060206040518083038186803b15801561156857600080fd5b505afa15801561157c573d6000803e3d6000fd5b505050506040513d602081101561159257600080fd5b810190808051906020019092919050505015611616576040517f08c379a00000000000000000000000000000000000000000000000000000000081526004018080602001828103825260078152602001807f636c61696d65640000000000000000000000000000000000000000000000000081525060200191505060405180910390fd5b600061163484838151811061162757fe5b6020026020010151612bd5565b90506000811115611655576116528382613cd790919063ffffffff16565b92505b508080600101915050611378565b50606760009054906101000a900473ffffffffffffffffffffffffffffffffffffffff1673ffffffffffffffffffffffffffffffffffffffff166374310355836040518263ffffffff1660e01b81526004018080602001828103825283818151815260200191508051906020019060200280838360005b838110156116f55780820151818401526020810190506116da565b5050505090500192505050600060405180830381600087803b15801561171a57600080fd5b505af115801561172e573d6000803e3d6000fd5b505050506000811115611746576117453382613d5f565b5b3373ffffffffffffffffffffffffffffffffffffffff167f6606374655494f5c0e2d6f392656e9777afd9ac5f61527d1bcad50b7e918a03e826040518082815260200191505060405180910390a25050565b6000606f54821115611812576040517f08c379a00000000000000000000000000000000000000000000000000000000081526004018080602001828103825260198152602001807f5f6973737565496e646578203c3d206973737565496e6465780000000000000081525060200191505060405180910390fd5b61181a6135de565b1580156118285750606f5482145b15611837576071549050611864565b606c600083815260200190815260200160002060008154811061185657fe5b906000526020600020015490505b919050565b61187161525b565b60008260036004811061188057fe5b602002015160088460026004811061189457fe5b602002015160ff16901b6010856001600481106118ad57fe5b602002015160ff16901b6018866000600481106118c657fe5b602002015160ff16901b01010160ff1690506118e061525b565b81816000600b81106118ee57fe5b602002019063ffffffff16908163ffffffff168152505062ffffff8216816001600b811061191857fe5b602002019063ffffffff16908163ffffffff168152505063ff00ffff8216816002600b811061194357fe5b602002019063ffffffff16908163ffffffff168152505063ffff00ff8216816003600b811061196e57fe5b602002019063ffffffff16908163ffffffff168152505063ffffff008216816004600b811061199957fe5b602002019063ffffffff16908163ffffffff168152505061ffff8216816005600b81106119c257fe5b602002019063ffffffff16908163ffffffff168152505062ff00ff8216816006600b81106119ec57fe5b602002019063ffffffff16908163ffffffff168152505062ffff008216816007600b8110611a1657fe5b602002019063ffffffff16908163ffffffff168152505063ff0000ff8216816008600b8110611a4157fe5b602002019063ffffffff16908163ffffffff168152505063ff00ff008216816009600b8110611a6c57fe5b602002019063ffffffff16908163ffffffff168152505063ffff0000821681600a600b8110611a9757fe5b602002019063ffffffff16908163ffffffff16815250508092505050919050565b606a6020528160005260406000208160048110611ad157fe5b60209182820401919006915091509054906101000a900460ff1681565b606860009054906101000a900473ffffffffffffffffffffffffffffffffffffffff1673ffffffffffffffffffffffffffffffffffffffff163373ffffffffffffffffffffffffffffffffffffffff1614611bb1576040517f08c379a000000000000000000000000000000000000000000000000000000000815260040180806020018281038252600b8152602001807f61646d696e3a207775743f00000000000000000000000000000000000000000081525060200191505060405180910390fd5b60405180606001604052808460ff1660ff1681526020018360ff1660ff1681526020018260ff1660ff168152506065906003611bee92919061527e565b503373ffffffffffffffffffffffffffffffffffffffff167f084866ac1c2208396290fe35a38f78993aa38fa5f458ad832d768e4ac6d18fa3848484604051808460ff1681526020018360ff1681526020018260ff168152602001935050505060405180910390a2505050565b606860009054906101000a900473ffffffffffffffffffffffffffffffffffffffff1673ffffffffffffffffffffffffffffffffffffffff163373ffffffffffffffffffffffffffffffffffffffff1614611d1e576040517f08c379a000000000000000000000000000000000000000000000000000000000815260040180806020018281038252600b8152602001807f61646d696e3a207775743f00000000000000000000000000000000000000000081525060200191505060405180910390fd5b806069819055503373ffffffffffffffffffffffffffffffffffffffff167f84cb1bb9f2cf0bbe5de6714c4b085e5ace133558133f8ea973b7b3177996ce81826040518082815260200191505060405180910390a250565b606b6020528160005260406000208181548110611d8f57fe5b90600052602060002001600091509150505481565b606f5481565b611db2613fd8565b73ffffffffffffffffffffffffffffffffffffffff16611dd0612229565b73ffffffffffffffffffffffffffffffffffffffff1614611e59576040517f08c379a00000000000000000000000000000000000000000000000000000000081526004018080602001828103825260208152602001807f4f776e61626c653a2063616c6c6572206973206e6f7420746865206f776e657281525060200191505060405180910390fd5b600073ffffffffffffffffffffffffffffffffffffffff168173ffffffffffffffffffffffffffffffffffffffff161415611e9357600080fd5b80606860006101000a81548173ffffffffffffffffffffffffffffffffffffffff021916908373ffffffffffffffffffffffffffffffffffffffff1602179055508073ffffffffffffffffffffffffffffffffffffffff163373ffffffffffffffffffffffffffffffffffffffff167f848ac24ab84501710d6631faab117b66b79aba7ec6f7778cf3bcff428c1a4efc60405160405180910390a350565b611f39613fd8565b73ffffffffffffffffffffffffffffffffffffffff16611f57612229565b73ffffffffffffffffffffffffffffffffffffffff1614611fe0576040517f08c379a00000000000000000000000000000000000000000000000000000000081526004018080602001828103825260208152602001807f4f776e61626c653a2063616c6c6572206973206e6f7420746865206f776e657281525060200191505060405180910390fd5b600073ffffffffffffffffffffffffffffffffffffffff16603360009054906101000a900473ffffffffffffffffffffffffffffffffffffffff1673ffffffffffffffffffffffffffffffffffffffff167f8be0079c531659141344cd1fd0a4f28419497f9722a3daafe3b4186f6b6457e060405160405180910390a36000603360006101000a81548173ffffffffffffffffffffffffffffffffffffffff021916908373ffffffffffffffffffffffffffffffffffffffff160217905550565b606860009054906101000a900473ffffffffffffffffffffffffffffffffffffffff1673ffffffffffffffffffffffffffffffffffffffff163373ffffffffffffffffffffffffffffffffffffffff1614612164576040517f08c379a000000000000000000000000000000000000000000000000000000000815260040180806020018281038252600b8152602001807f61646d696e3a207775743f00000000000000000000000000000000000000000081525060200191505060405180910390fd5b6121b13382606660009054906101000a900473ffffffffffffffffffffffffffffffffffffffff1673ffffffffffffffffffffffffffffffffffffffff16613fe09092919063ffffffff16565b3373ffffffffffffffffffffffffffffffffffffffff167f050d1c64cc22ce461b9bc14f6b73852566da02b03c155242bc63169d1fec42aa826040518082815260200191505060405180910390a250565b6065816003811061220f57fe5b60209182820401919006915054906101000a900460ff1681565b6000603360009054906101000a900473ffffffffffffffffffffffffffffffffffffffff16905090565b606860009054906101000a900473ffffffffffffffffffffffffffffffffffffffff1673ffffffffffffffffffffffffffffffffffffffff163373ffffffffffffffffffffffffffffffffffffffff1614612316576040517f08c379a000000000000000000000000000000000000000000000000000000000815260040180806020018281038252600b8152602001807f61646d696e3a207775743f00000000000000000000000000000000000000000081525060200191505060405180910390fd5b61231e6135de565b15612391576040517f08c379a00000000000000000000000000000000000000000000000000000000081526004018080602001828103825260068152602001807f72657365743f000000000000000000000000000000000000000000000000000081525060200191505060405180910390fd5b607460009054906101000a900460ff16612413576040517f08c379a00000000000000000000000000000000000000000000000000000000081526004018080602001828103825260198152602001807f656e7465722064726177696e672070686173652066697273740000000000000081525060200191505060405180910390fd5b6000806000606860149054906101000a900460ff16905060006001430340905060005b600a8110156124585761244a606f54611798565b508080600101915050612436565b5060005a9050816070548288604051602001808581526020018481526020018381526020018281526020019450505050506040516020818303038152906040528051906020012094508460001c935060018385060193508360736000600481106124be57fe5b602091828204019190066101000a81548160ff021916908360ff160217905550816071548288604051602001808581526020018481526020018381526020018281526020019450505050506040516020818303038152906040528051906020012094508460001c9350600183850601935083607360016004811061253e57fe5b602091828204019190066101000a81548160ff021916908360ff160217905550816072548288604051602001808581526020018481526020018381526020018281526020019450505050506040516020818303038152906040528051906020012094508460001c935060018385060193508360736002600481106125be57fe5b602091828204019190066101000a81548160ff021916908360ff1602179055508181876040516020018084815260200183815260200182815260200193505050506040516020818303038152906040528051906020012094508460001c9350600183850601935083607360036004811061263457fe5b602091828204019190066101000a81548160ff021916908360ff1602179055506073606a6000606f548152602001908152602001600020906004612679929190615318565b50612682614082565b606c6000606f5481526020019081526020016000209060046126a5929190615363565b506000607460006101000a81548160ff021916908315150217905550606f547fa13e935b188993737b3009d62bd916dcbe9e82d8236d75981eeadf26a1460d3d6073604051808260048015612735576020028201916000905b82829054906101000a900460ff1660ff16815260200190600101906020826000010492830192600103820291508084116126fe5790505b505091505060405180910390a2505050505050565b606760009054906101000a900473ffffffffffffffffffffffffffffffffffffffff1673ffffffffffffffffffffffffffffffffffffffff16636352211e826040518263ffffffff1660e01b81526004018082815260200191505060206040518083038186803b1580156127bd57600080fd5b505afa1580156127d1573d6000803e3d6000fd5b505050506040513d60208110156127e757600080fd5b810190808051906020019092919050505073ffffffffffffffffffffffffffffffffffffffff163373ffffffffffffffffffffffffffffffffffffffff1614612898576040517f08c379a000000000000000000000000000000000000000000000000000000000815260040180806020018281038252600e8152602001807f6e6f742066726f6d206f776e657200000000000000000000000000000000000081525060200191505060405180910390fd5b606760009054906101000a900473ffffffffffffffffffffffffffffffffffffffff1673ffffffffffffffffffffffffffffffffffffffff166336dbd2f9826040518263ffffffff1660e01b81526004018082815260200191505060206040518083038186803b15801561290b57600080fd5b505afa15801561291f573d6000803e3d6000fd5b505050506040513d602081101561293557600080fd5b8101908080519060200190929190505050156129b9576040517f08c379a00000000000000000000000000000000000000000000000000000000081526004018080602001828103825260078152602001807f636c61696d65640000000000000000000000000000000000000000000000000081525060200191505060405180910390fd5b60006129c482612bd5565b9050606760009054906101000a900473ffffffffffffffffffffffffffffffffffffffff1673ffffffffffffffffffffffffffffffffffffffff1663ae169a50836040518263ffffffff1660e01b815260040180828152602001915050600060405180830381600087803b158015612a3b57600080fd5b505af1158015612a4f573d6000803e3d6000fd5b505050506000811115612a6757612a663382613d5f565b5b3373ffffffffffffffffffffffffffffffffffffffff167f34fcbac0073d7c3d388e51312faf357774904998eeb8fca628b9e6f65ee1cbf78383604051808381526020018281526020019250505060405180910390a25050565b606660009054906101000a900473ffffffffffffffffffffffffffffffffffffffff1681565b606c6020528160005260406000208181548110612b0057fe5b90600052602060002001600091509150505481565b60705481565b600060028210158015612b2f575060048211155b612ba1576040517f08c379a00000000000000000000000000000000000000000000000000000000081526004018080602001828103825260208152602001807f6765744d61746368696e67526577617264416d6f756e743a20494e56414c494481525060200191505060405180910390fd5b606c60008481526020019081526020016000208260050381548110612bc257fe5b9060005260206000200154905092915050565b600080606760009054906101000a900473ffffffffffffffffffffffffffffffffffffffff1673ffffffffffffffffffffffffffffffffffffffff16631bf1e00f846040518263ffffffff1660e01b81526004018082815260200191505060206040518083038186803b158015612c4b57600080fd5b505afa158015612c5f573d6000803e3d6000fd5b505050506040513d6020811015612c7557600080fd5b81019080805190602001909291905050509050612c906153b0565b606760009054906101000a900473ffffffffffffffffffffffffffffffffffffffff1673ffffffffffffffffffffffffffffffffffffffff16635f8e26a7856040518263ffffffff1660e01b81526004018082815260200191505060806040518083038186803b158015612d0357600080fd5b505afa158015612d17573d6000803e3d6000fd5b505050506040513d601f19601f820116820180604052506080811015612d3c57600080fd5b81019080919050509050612d4e6153b0565b606a6000848152602001908152602001600020600480602002604051908101604052809291908260048015612dbe576020028201916000905b82829054906101000a900460ff1660ff1681526020019060010190602082600001049283019260010382029150808411612d875790505b50505050509050600081600060048110612dd457fe5b602002015160ff161415612e50576040517f08c379a000000000000000000000000000000000000000000000000000000000815260040180806020018281038252600a8152602001807f6e6f74206472617765640000000000000000000000000000000000000000000081525060200191505060405180910390fd5b6000805b6004811015612e9f57838160048110612e6957fe5b602002015160ff16838260048110612e7d57fe5b602002015160ff161415612e92576001820191505b8080600101915050612e54565b5060006001821115613001576000606760009054906101000a900473ffffffffffffffffffffffffffffffffffffffff1673ffffffffffffffffffffffffffffffffffffffff1663f7a0c0ca896040518263ffffffff1660e01b81526004018082815260200191505060206040518083038186803b158015612f2057600080fd5b505afa158015612f34573d6000803e3d6000fd5b505050506040513d6020811015612f4a57600080fd5b810190808051906020019092919050505090506000612fb56064612fa760658760040360038110612f7757fe5b602091828204019190069054906101000a900460ff1660ff16612f998b611798565b61456890919063ffffffff16565b6145ee90919063ffffffff16565b9050612ffc612fc48886612b1b565b612fee83612fe064e8d4a510008761456890919063ffffffff16565b61456890919063ffffffff16565b6145ee90919063ffffffff16565b925050505b61301964e8d4a51000826145ee90919063ffffffff16565b95505050505050919050565b606860009054906101000a900473ffffffffffffffffffffffffffffffffffffffff1673ffffffffffffffffffffffffffffffffffffffff163373ffffffffffffffffffffffffffffffffffffffff16146130e8576040517f08c379a000000000000000000000000000000000000000000000000000000000815260040180806020018281038252600b8152602001807f61646d696e3a207775743f00000000000000000000000000000000000000000081525060200191505060405180910390fd5b6130f06135de565b613162576040517f08c379a00000000000000000000000000000000000000000000000000000000081526004018080602001828103825260078152602001807f6472617765643f0000000000000000000000000000000000000000000000000081525060200191505060405180910390fd5b42607281905550600060708190555060006071819055506000607360006004811061318957fe5b602091828204019190066101000a81548160ff021916908360ff160217905550600060736001600481106131b957fe5b602091828204019190066101000a81548160ff021916908360ff160217905550600060736002600481106131e957fe5b602091828204019190066101000a81548160ff021916908360ff1602179055506000607360036004811061321957fe5b602091828204019190066101000a81548160ff021916908360ff1602179055506000607460006101000a81548160ff0219169083151502179055506001606f5401606f8190555060006132726001606f54036004612b1b565b14156133445760006132d360646132c5606560006003811061329057fe5b602091828204019190069054906101000a900460ff1660ff166132b76001606f5403611798565b61456890919063ffffffff16565b6145ee90919063ffffffff16565b9050613342816075600480602002604051908101604052809291908260048015613338576020028201916000905b82829054906101000a900460ff1660ff16815260200190600101906020826000010492830192600103820291508084116133015790505b5050505050614638565b505b606f547f01c3cbb0d62726ab09d163873ebf9aed99dd8dc08e57bc938f458132fd178cf660405160405180910390a2565b600060019054906101000a900460ff16806133945750613393614925565b5b806133aa575060008054906101000a900460ff16155b6133ff576040517f08c379a000000000000000000000000000000000000000000000000000000000815260040180806020018281038252602e8152602001806154b0602e913960400191505060405180910390fd5b60008060019054906101000a900460ff16159050801561344f576001600060016101000a81548160ff02191690831515021790555060016000806101000a81548160ff0219169083151502179055505b600073ffffffffffffffffffffffffffffffffffffffff168273ffffffffffffffffffffffffffffffffffffffff16141561348957600080fd5b85606660006101000a81548173ffffffffffffffffffffffffffffffffffffffff021916908373ffffffffffffffffffffffffffffffffffffffff16021790555084606760006101000a81548173ffffffffffffffffffffffffffffffffffffffff021916908373ffffffffffffffffffffffffffffffffffffffff1602179055508360698190555082606860146101000a81548160ff021916908360ff16021790555081606860006101000a81548173ffffffffffffffffffffffffffffffffffffffff021916908373ffffffffffffffffffffffffffffffffffffffff160217905550426072819055506040518060600160405280603c60ff168152602001601460ff168152602001600a60ff1681525060659060036135ac92919061527e565b506135b5614936565b80156135d65760008060016101000a81548160ff0219169083151502179055505b505050505050565b60008060736000600481106135ef57fe5b602091828204019190069054906101000a900460ff1660ff161415905090565b60695481565b606760009054906101000a900473ffffffffffffffffffffffffffffffffffffffff1681565b613643613fd8565b73ffffffffffffffffffffffffffffffffffffffff16613661612229565b73ffffffffffffffffffffffffffffffffffffffff16146136ea576040517f08c379a00000000000000000000000000000000000000000000000000000000081526004018080602001828103825260208152602001807f4f776e61626c653a2063616c6c6572206973206e6f7420746865206f776e657281525060200191505060405180910390fd5b600073ffffffffffffffffffffffffffffffffffffffff168173ffffffffffffffffffffffffffffffffffffffff161415613770576040517f08c379a00000000000000000000000000000000000000000000000000000000081526004018080602001828103825260268152602001806154646026913960400191505060405180910390fd5b8073ffffffffffffffffffffffffffffffffffffffff16603360009054906101000a900473ffffffffffffffffffffffffffffffffffffffff1673ffffffffffffffffffffffffffffffffffffffff167f8be0079c531659141344cd1fd0a4f28419497f9722a3daafe3b4186f6b6457e060405160405180910390a380603360006101000a81548173ffffffffffffffffffffffffffffffffffffffff021916908373ffffffffffffffffffffffffffffffffffffffff16021790555050565b606860009054906101000a900473ffffffffffffffffffffffffffffffffffffffff1681565b600080600090505b600481101561390f57606860149054906101000a900460ff1660ff1683826004811061388657fe5b602002015160ff161115613902576040517f08c379a000000000000000000000000000000000000000000000000000000000815260040180806020018281038252600a8152602001807f626164206e756d6265720000000000000000000000000000000000000000000081525060200191505060405180910390fd5b808060010191505061385e565b506000606760009054906101000a900473ffffffffffffffffffffffffffffffffffffffff1673ffffffffffffffffffffffffffffffffffffffff166337391c00338587606f546040518563ffffffff1660e01b8152600401808573ffffffffffffffffffffffffffffffffffffffff16815260200184600460200280838360005b838110156139ac578082015181840152602081019050613991565b50505050905001838152602001828152602001945050505050602060405180830381600087803b1580156139df57600080fd5b505af11580156139f3573d6000803e3d6000fd5b505050506040513d6020811015613a0957600080fd5b81019080805190602001909291905050509050606b6000606f5481526020019081526020016000208190806001815401808255809150506001900390600052602060002001600090919091909150556000606e60003373ffffffffffffffffffffffffffffffffffffffff1673ffffffffffffffffffffffffffffffffffffffff168152602001908152602001600020805490501415613ab0576001607054016070819055505b606e60003373ffffffffffffffffffffffffffffffffffffffff1673ffffffffffffffffffffffffffffffffffffffff168152602001908152602001600020819080600181540180825580915050600190039060005260206000200160009091909190915055613b2b84607154613cd790919063ffffffff16565b60718190555042607281905550613b4061525b565b613b4984611869565b905060005b600b60ff16811015613c0a57613bb386606d6000606f54815260200190815260200160002060008585600b8110613b8157fe5b602002015163ffffffff1667ffffffffffffffff16815260200190815260200160002054613cd790919063ffffffff16565b606d6000606f54815260200190815260200160002060008484600b8110613bd657fe5b602002015163ffffffff1667ffffffffffffffff168152602001908152602001600020819055508080600101915050613b4e565b50819250505092915050565b613cd1846323b872dd60e01b858585604051602401808473ffffffffffffffffffffffffffffffffffffffff1681526020018373ffffffffffffffffffffffffffffffffffffffff1681526020018281526020019350505050604051602081830303815290604052907bffffffffffffffffffffffffffffffffffffffffffffffffffffffff19166020820180517bffffffffffffffffffffffffffffffffffffffffffffffffffffffff8381831617835250505050614a44565b50505050565b600080828401905083811015613d55576040517f08c379a000000000000000000000000000000000000000000000000000000000815260040180806020018281038252601b8152602001807f536166654d6174683a206164646974696f6e206f766572666c6f77000000000081525060200191505060405180910390fd5b8091505092915050565b6000606660009054906101000a900473ffffffffffffffffffffffffffffffffffffffff1673ffffffffffffffffffffffffffffffffffffffff166370a08231306040518263ffffffff1660e01b8152600401808273ffffffffffffffffffffffffffffffffffffffff16815260200191505060206040518083038186803b158015613dea57600080fd5b505afa158015613dfe573d6000803e3d6000fd5b505050506040513d6020811015613e1457600080fd5b8101908080519060200190929190505050905080821115613f0357606660009054906101000a900473ffffffffffffffffffffffffffffffffffffffff1673ffffffffffffffffffffffffffffffffffffffff1663a9059cbb84836040518363ffffffff1660e01b8152600401808373ffffffffffffffffffffffffffffffffffffffff16815260200182815260200192505050602060405180830381600087803b158015613ec257600080fd5b505af1158015613ed6573d6000803e3d6000fd5b505050506040513d6020811015613eec57600080fd5b810190808051906020019092919050505050613fd3565b606660009054906101000a900473ffffffffffffffffffffffffffffffffffffffff1673ffffffffffffffffffffffffffffffffffffffff1663a9059cbb84846040518363ffffffff1660e01b8152600401808373ffffffffffffffffffffffffffffffffffffffff16815260200182815260200192505050602060405180830381600087803b158015613f9657600080fd5b505af1158015613faa573d6000803e3d6000fd5b505050506040513d6020811015613fc057600080fd5b8101908080519060200190929190505050505b505050565b600033905090565b61407d8363a9059cbb60e01b8484604051602401808373ffffffffffffffffffffffffffffffffffffffff16815260200182815260200192505050604051602081830303815290604052907bffffffffffffffffffffffffffffffffffffffffffffffffffffffff19166020820180517bffffffffffffffffffffffffffffffffffffffffffffffffffffffff8381831617835250505050614a44565b505050565b61408a6153d2565b61409261525b565b6140fe60736004806020026040519081016040528092919082600480156140f4576020028201916000905b82829054906101000a900460ff1660ff16815260200190600101906020826000010492830192600103820291508084116140bd5790505b5050505050611869565b90506000606d6000606f5481526020019081526020016000206000836000600b811061412657fe5b602002015163ffffffff1667ffffffffffffffff1681526020019081526020016000205490506000606d6000606f5481526020019081526020016000206000846001600b811061417257fe5b602002015163ffffffff1667ffffffffffffffff1681526020019081526020016000205490506141f2606d6000606f5481526020019081526020016000206000856002600b81106141bf57fe5b602002015163ffffffff1667ffffffffffffffff1681526020019081526020016000205482613cd790919063ffffffff16565b905061424e606d6000606f5481526020019081526020016000206000856003600b811061421b57fe5b602002015163ffffffff1667ffffffffffffffff1681526020019081526020016000205482613cd790919063ffffffff16565b90506142aa606d6000606f5481526020019081526020016000206000856004600b811061427757fe5b602002015163ffffffff1667ffffffffffffffff1681526020019081526020016000205482613cd790919063ffffffff16565b90506142d26142c360048461456890919063ffffffff16565b82614b3390919063ffffffff16565b90506000606d6000606f5481526020019081526020016000206000856005600b81106142fa57fe5b602002015163ffffffff1667ffffffffffffffff16815260200190815260200160002054905061437a606d6000606f5481526020019081526020016000206000866006600b811061434757fe5b602002015163ffffffff1667ffffffffffffffff1681526020019081526020016000205482613cd790919063ffffffff16565b90506143d6606d6000606f5481526020019081526020016000206000866007600b81106143a357fe5b602002015163ffffffff1667ffffffffffffffff1681526020019081526020016000205482613cd790919063ffffffff16565b9050614432606d6000606f5481526020019081526020016000206000866008600b81106143ff57fe5b602002015163ffffffff1667ffffffffffffffff1681526020019081526020016000205482613cd790919063ffffffff16565b905061448e606d6000606f5481526020019081526020016000206000866009600b811061445b57fe5b602002015163ffffffff1667ffffffffffffffff1681526020019081526020016000205482613cd790919063ffffffff16565b90506144ea606d6000606f548152602001908152602001600020600086600a600b81106144b757fe5b602002015163ffffffff1667ffffffffffffffff1681526020019081526020016000205482613cd790919063ffffffff16565b905061451261450360038461456890919063ffffffff16565b82614b3390919063ffffffff16565b905061453a61452b60068561456890919063ffffffff16565b82614b3390919063ffffffff16565b9050604051806080016040528060715481526020018481526020018381526020018281525094505050505090565b60008083141561457b57600090506145e8565b600082840290508284828161458c57fe5b04146145e3576040517f08c379a00000000000000000000000000000000000000000000000000000000081526004018080602001828103825260218152602001806154de6021913960400191505060405180910390fd5b809150505b92915050565b600061463083836040518060400160405280601a81526020017f536166654d6174683a206469766973696f6e206279207a65726f000000000000815250614b7d565b905092915050565b6146406135de565b156146b3576040517f08c379a00000000000000000000000000000000000000000000000000000000081526004018080602001828103825260178152602001807f6472617765642c2063616e206e6f7420627579206e6f7700000000000000000081525060200191505060405180910390fd5b60005b600481101561476757606860149054906101000a900460ff1660ff168282600481106146de57fe5b602002015160ff16111561475a576040517f08c379a00000000000000000000000000000000000000000000000000000000081526004018080602001828103825260128152602001807f65786365656420746865206d6178696d756d000000000000000000000000000081525060200191505060405180910390fd5b80806001019150506146b6565b506000606760009054906101000a900473ffffffffffffffffffffffffffffffffffffffff1673ffffffffffffffffffffffffffffffffffffffff166337391c00308486606f546040518563ffffffff1660e01b8152600401808573ffffffffffffffffffffffffffffffffffffffff16815260200184600460200280838360005b838110156148045780820151818401526020810190506147e9565b50505050905001838152602001828152602001945050505050602060405180830381600087803b15801561483757600080fd5b505af115801561484b573d6000803e3d6000fd5b505050506040513d602081101561486157600080fd5b81019080805190602001909291905050509050606b6000606f5481526020019081526020016000208190806001815401808255809150506001900390600052602060002001600090919091909150556148c583607154613cd790919063ffffffff16565b607181905550426072819055503073ffffffffffffffffffffffffffffffffffffffff167fe3d4187f6ca4248660cc0ac8b8056515bac4a8132be2eca31d6d0cc170722a7e826040518082815260200191505060405180910390a2505050565b600061493030614c43565b15905090565b600060019054906101000a900460ff16806149555750614954614925565b5b8061496b575060008054906101000a900460ff16155b6149c0576040517f08c379a000000000000000000000000000000000000000000000000000000000815260040180806020018281038252602e8152602001806154b0602e913960400191505060405180910390fd5b60008060019054906101000a900460ff161590508015614a10576001600060016101000a81548160ff02191690831515021790555060016000806101000a81548160ff0219169083151502179055505b614a18614c56565b614a20614d54565b8015614a415760008060016101000a81548160ff0219169083151502179055505b50565b6060614aa6826040518060400160405280602081526020017f5361666542455032303a206c6f772d6c6576656c2063616c6c206661696c65648152508573ffffffffffffffffffffffffffffffffffffffff16614efb9092919063ffffffff16565b9050600081511115614b2e57808060200190516020811015614ac757600080fd5b8101908080519060200190929190505050614b2d576040517f08c379a000000000000000000000000000000000000000000000000000000000815260040180806020018281038252602a81526020018061543a602a913960400191505060405180910390fd5b5b505050565b6000614b7583836040518060400160405280601e81526020017f536166654d6174683a207375627472616374696f6e206f766572666c6f770000815250614f13565b905092915050565b60008083118290614c29576040517f08c379a00000000000000000000000000000000000000000000000000000000081526004018080602001828103825283818151815260200191508051906020019080838360005b83811015614bee578082015181840152602081019050614bd3565b50505050905090810190601f168015614c1b5780820380516001836020036101000a031916815260200191505b509250505060405180910390fd5b506000838581614c3557fe5b049050809150509392505050565b600080823b905060008111915050919050565b600060019054906101000a900460ff1680614c755750614c74614925565b5b80614c8b575060008054906101000a900460ff16155b614ce0576040517f08c379a000000000000000000000000000000000000000000000000000000000815260040180806020018281038252602e8152602001806154b0602e913960400191505060405180910390fd5b60008060019054906101000a900460ff161590508015614d30576001600060016101000a81548160ff02191690831515021790555060016000806101000a81548160ff0219169083151502179055505b8015614d515760008060016101000a81548160ff0219169083151502179055505b50565b600060019054906101000a900460ff1680614d735750614d72614925565b5b80614d89575060008054906101000a900460ff16155b614dde576040517f08c379a000000000000000000000000000000000000000000000000000000000815260040180806020018281038252602e8152602001806154b0602e913960400191505060405180910390fd5b60008060019054906101000a900460ff161590508015614e2e576001600060016101000a81548160ff02191690831515021790555060016000806101000a81548160ff0219169083151502179055505b6000614e38613fd8565b905080603360006101000a81548173ffffffffffffffffffffffffffffffffffffffff021916908373ffffffffffffffffffffffffffffffffffffffff1602179055508073ffffffffffffffffffffffffffffffffffffffff16600073ffffffffffffffffffffffffffffffffffffffff167f8be0079c531659141344cd1fd0a4f28419497f9722a3daafe3b4186f6b6457e060405160405180910390a3508015614ef85760008060016101000a81548160ff0219169083151502179055505b50565b6060614f0a8484600085614fd3565b90509392505050565b6000838311158290614fc0576040517f08c379a00000000000000000000000000000000000000000000000000000000081526004018080602001828103825283818151815260200191508051906020019080838360005b83811015614f85578082015181840152602081019050614f6a565b50505050905090810190601f168015614fb25780820380516001836020036101000a031916815260200191505b509250505060405180910390fd5b5060008385039050809150509392505050565b60608247101561502e576040517f08c379a000000000000000000000000000000000000000000000000000000000815260040180806020018281038252602681526020018061548a6026913960400191505060405180910390fd5b6150378561517c565b6150a9576040517f08c379a000000000000000000000000000000000000000000000000000000000815260040180806020018281038252601d8152602001807f416464726573733a2063616c6c20746f206e6f6e2d636f6e747261637400000081525060200191505060405180910390fd5b600060608673ffffffffffffffffffffffffffffffffffffffff1685876040518082805190602001908083835b602083106150f957805182526020820191506020810190506020830392506150d6565b6001836020036101000a03801982511681845116808217855250505050505090500191505060006040518083038185875af1925050503d806000811461515b576040519150601f19603f3d011682016040523d82523d6000602084013e615160565b606091505b509150915061517082828661518f565b92505050949350505050565b600080823b905060008111915050919050565b6060831561519f57829050615254565b6000835111156151b25782518084602001fd5b816040517f08c379a00000000000000000000000000000000000000000000000000000000081526004018080602001828103825283818151815260200191508051906020019080838360005b838110156152195780820151818401526020810190506151fe565b50505050905090810190601f1680156152465780820380516001836020036101000a031916815260200191505b509250505060405180910390fd5b9392505050565b604051806101600160405280600b90602082028036833780820191505090505090565b826003601f016020900481019282156153075791602002820160005b838211156152d857835183826101000a81548160ff021916908360ff160217905550926020019260010160208160000104928301926001030261529a565b80156153055782816101000a81549060ff02191690556001016020816000010492830192600103026152d8565b505b50905061531491906153f4565b5090565b826004601f016020900481019282156153525791601f016020900482015b82811115615351578254825591600101919060010190615336565b5b50905061535f91906153f4565b5090565b82805482825590600052602060002090810192821561539f579160200282015b8281111561539e578251825591602001919060010190615383565b5b5090506153ac919061541c565b5090565b6040518060800160405280600490602082028036833780820191505090505090565b6040518060800160405280600490602082028036833780820191505090505090565b5b8082111561541857600081816101000a81549060ff0219169055506001016153f5565b5090565b5b8082111561543557600081600090555060010161541d565b509056fe5361666542455032303a204245503230206f7065726174696f6e20646964206e6f7420737563636565644f776e61626c653a206e6577206f776e657220697320746865207a65726f2061646472657373416464726573733a20696e73756666696369656e742062616c616e636520666f722063616c6c496e697469616c697a61626c653a20636f6e747261637420697320616c726561647920696e697469616c697a6564536166654d6174683a206d756c7469706c69636174696f6e206f766572666c6f77a26469706673582212203520b9738ebb662a1a1d661196e5d8f17a94bafffd879abf8b0f47d44c11753064736f6c634300060c0033",
  "immutableReferences": {},
  "source": "pragma solidity 0.6.12;\n\nimport \"./LotteryNFT.sol\";\nimport \"../libs/IBEP20.sol\";\nimport \"../libs/SafeBEP20.sol\";\nimport \"@openzeppelin/contracts/math/SafeMath.sol\";\nimport \"@openzeppelin/contracts-upgradeable/access/OwnableUpgradeable.sol\";\n\n// 4 numbers\ncontract Lottery is OwnableUpgradeable {\n    using SafeMath for uint256;\n    using SafeMath for uint8;\n    using SafeBEP20 for IBEP20;\n\n    uint8 constant winningCombinations = 11;\n    // Allocation for first/sencond/third reward\n    uint8[3] public allocation;\n    // The TOKEN to buy lottery\n    IBEP20 public egg;\n    // The Lottery NFT for tickets\n    LotteryNFT public lotteryNFT;\n    // adminAddress\n    address public adminAddress;\n    // maxNumber\n    uint8 public maxNumber;\n    // minPrice, if decimal is not 18, please reset it\n    uint256 public minPrice;\n\n    // =================================\n\n    // issueId => winningNumbers[numbers]\n    mapping (uint256 => uint8[4]) public historyNumbers;\n    // issueId => [tokenId]\n    mapping (uint256 => uint256[]) public lotteryInfo;\n    // issueId => [totalAmount, firstMatchAmount, secondMatchingAmount, thirdMatchingAmount]\n    mapping (uint256 => uint256[]) public historyAmount;\n    // issueId => trickyNumber => buyAmountSum\n    mapping (uint256 => mapping(uint64 => uint256)) public userBuyAmountSum;\n    // address => [tokenId]\n    mapping (address => uint256[]) public userInfo;\n\n    uint256 public issueIndex = 0;\n    uint256 public totalAddresses = 0;\n    uint256 public totalAmount = 0;\n    uint256 public lastTimestamp;\n\n    uint8[4] public winningNumbers;\n\n    // default false\n    bool public drawingPhase;\n\n    // =================================\n\n    event Buy(address indexed user, uint256 tokenId);\n    event Drawing(uint256 indexed issueIndex, uint8[4] winningNumbers);\n    event Claim(address indexed user, uint256 tokenid, uint256 amount);\n    event DevWithdraw(address indexed user, uint256 amount);\n    event Reset(uint256 indexed issueIndex);\n    event MultiClaim(address indexed user, uint256 amount);\n    event MultiBuy(address indexed user, uint256 amount);\n    event SetMinPrice(address indexed user, uint256 price);\n    event SetMaxNumber(address indexed user, uint256 number);\n    event SetAdmin(address indexed user, address indexed admin);\n    event SetAllocation(address indexed user, uint8 allocation1, uint8 allocation2, uint8 allocation3);\n\n    constructor() public {\n    }\n\n    function initialize(\n        IBEP20 _egg,\n        LotteryNFT _lottery,\n        uint256 _minPrice,\n        uint8 _maxNumber,\n        address _adminAddress\n    ) external initializer {\n        require(_adminAddress != address(0));\n\n        egg = _egg;\n        lotteryNFT = _lottery;\n        minPrice = _minPrice;\n        maxNumber = _maxNumber;\n        adminAddress = _adminAddress;\n        lastTimestamp = block.timestamp;\n        allocation = [60, 20, 10];\n        __Ownable_init();\n    }\n\n    uint8[4] private nullTicket = [0,0,0,0];\n\n    modifier onlyAdmin() {\n        require(msg.sender == adminAddress, \"admin: wut?\");\n        _;\n    }\n\n    function drawed() public view returns(bool) {\n        return winningNumbers[0] != 0;\n    }\n\n    function reset() external onlyAdmin {\n        require(drawed(), \"drawed?\");\n        lastTimestamp = block.timestamp;\n        totalAddresses = 0;\n        totalAmount = 0;\n        winningNumbers[0]=0;\n        winningNumbers[1]=0;\n        winningNumbers[2]=0;\n        winningNumbers[3]=0;\n        drawingPhase = false;\n        issueIndex = issueIndex +1;\n        if(getMatchingRewardAmount(issueIndex-1, 4) == 0) {\n            uint256 amount = getTotalRewards(issueIndex-1).mul(allocation[0]).div(100);\n            internalBuy(amount, nullTicket);\n        }\n        emit Reset(issueIndex);\n    }\n\n    function enterDrawingPhase() external onlyAdmin {\n        require(!drawed(), 'drawed');\n        drawingPhase = true;\n    }\n\n    // add externalRandomNumber to prevent node validators exploiting\n    function drawing(uint256 _externalRandomNumber) external onlyAdmin {\n        require(!drawed(), \"reset?\");\n        require(drawingPhase, \"enter drawing phase first\");\n        bytes32 _structHash;\n        uint256 _randomNumber;\n        uint8 _maxNumber = maxNumber;\n        bytes32 _blockhash = blockhash(block.number-1);\n\n        // waste some gas fee here\n        for (uint i = 0; i < 10; i++) {\n            getTotalRewards(issueIndex);\n        }\n        uint256 gasLeft = gasleft();\n\n        // 1\n        _structHash = keccak256(\n            abi.encode(\n                _blockhash,\n                totalAddresses,\n                gasLeft,\n                _externalRandomNumber\n            )\n        );\n        _randomNumber  = uint256(_structHash);\n        assembly {_randomNumber := add(mod(_randomNumber, _maxNumber),1)}\n        winningNumbers[0]=uint8(_randomNumber);\n\n        // 2\n        _structHash = keccak256(\n            abi.encode(\n                _blockhash,\n                totalAmount,\n                gasLeft,\n                _externalRandomNumber\n            )\n        );\n        _randomNumber  = uint256(_structHash);\n        assembly {_randomNumber := add(mod(_randomNumber, _maxNumber),1)}\n        winningNumbers[1]=uint8(_randomNumber);\n\n        // 3\n        _structHash = keccak256(\n            abi.encode(\n                _blockhash,\n                lastTimestamp,\n                gasLeft,\n                _externalRandomNumber\n            )\n        );\n        _randomNumber  = uint256(_structHash);\n        assembly {_randomNumber := add(mod(_randomNumber, _maxNumber),1)}\n        winningNumbers[2]=uint8(_randomNumber);\n\n        // 4\n        _structHash = keccak256(\n            abi.encode(\n                _blockhash,\n                gasLeft,\n                _externalRandomNumber\n            )\n        );\n        _randomNumber  = uint256(_structHash);\n        assembly {_randomNumber := add(mod(_randomNumber, _maxNumber),1)}\n        winningNumbers[3]=uint8(_randomNumber);\n        historyNumbers[issueIndex] = winningNumbers;\n        historyAmount[issueIndex] = calculateMatchingRewardAmount();\n        drawingPhase = false;\n        emit Drawing(issueIndex, winningNumbers);\n    }\n\n    function internalBuy(uint256 _price, uint8[4] memory _numbers) internal {\n        require (!drawed(), 'drawed, can not buy now');\n        for (uint i = 0; i < 4; i++) {\n            require (_numbers[i] <= maxNumber, 'exceed the maximum');\n        }\n        uint256 tokenId = lotteryNFT.newLotteryItem(address(this), _numbers, _price, issueIndex);\n        lotteryInfo[issueIndex].push(tokenId);\n        totalAmount = totalAmount.add(_price);\n        lastTimestamp = block.timestamp;\n        emit Buy(address(this), tokenId);\n\n    }\n\n    function _buySingleTicket(uint256 _price, uint8[4] memory _numbers) private returns (uint256){\n        for (uint i = 0; i < 4; i++) {\n            require (_numbers[i] <= maxNumber, 'bad number');\n        }\n        uint256 tokenId = lotteryNFT.newLotteryItem(msg.sender, _numbers, _price, issueIndex);\n        lotteryInfo[issueIndex].push(tokenId);\n        if (userInfo[msg.sender].length == 0) {\n            totalAddresses = totalAddresses + 1;\n        }\n        userInfo[msg.sender].push(tokenId);\n        totalAmount = totalAmount.add(_price);\n        lastTimestamp = block.timestamp;\n        uint32[winningCombinations] memory userCombinations = generateCombinations(_numbers);\n        for (uint i = 0; i < winningCombinations; i++) {\n            userBuyAmountSum[issueIndex][userCombinations[i]]=userBuyAmountSum[issueIndex][userCombinations[i]].add(_price);\n        }\n        return tokenId;\n    }\n\n    function buy(uint256 _price, uint8[4] memory _numbers) external {\n        require(!drawed(), 'drawed, can not buy now');\n        require(!drawingPhase, 'drawing, can not buy now');\n        require (_price >= minPrice, 'price must above minPrice');\n        uint256 tokenId = _buySingleTicket(_price, _numbers);\n        egg.safeTransferFrom(address(msg.sender), address(this), _price);\n        emit Buy(msg.sender, tokenId);\n    }\n\n    function multiBuy(uint256 _price, uint8[4][] memory _numbers) external {\n        require (!drawed(), 'drawed, can not buy now');\n        require (_price >= minPrice, 'price must above minPrice');\n        uint256 totalPrice  = 0;\n        for (uint i = 0; i < _numbers.length; i++) {\n            _buySingleTicket(_price, _numbers[i]);\n            totalPrice = totalPrice.add(_price);\n        }\n        egg.safeTransferFrom(address(msg.sender), address(this), totalPrice);\n        emit MultiBuy(msg.sender, totalPrice);\n    }\n\n    function claimReward(uint256 _tokenId) external {\n        require(msg.sender == lotteryNFT.ownerOf(_tokenId), \"not from owner\");\n        require (!lotteryNFT.getClaimStatus(_tokenId), \"claimed\");\n        uint256 reward = getRewardView(_tokenId);\n        lotteryNFT.claimReward(_tokenId);\n        if(reward>0) {\n            safeEggTransfer(address(msg.sender), reward);\n        }\n        emit Claim(msg.sender, _tokenId, reward);\n    }\n\n    function multiClaim(uint256[] memory _tickets) external {\n        uint256 totalReward = 0;\n        for (uint i = 0; i < _tickets.length; i++) {\n            require (msg.sender == lotteryNFT.ownerOf(_tickets[i]), \"not from owner\");\n            require (!lotteryNFT.getClaimStatus(_tickets[i]), \"claimed\");\n            uint256 reward = getRewardView(_tickets[i]);\n            if(reward>0) {\n                totalReward = reward.add(totalReward);\n            }\n        }\n        lotteryNFT.multiClaimReward(_tickets);\n        if(totalReward>0) {\n            safeEggTransfer(address(msg.sender), totalReward);\n        }\n        emit MultiClaim(msg.sender, totalReward);\n    }\n\n    function generateCombinations(uint8[4] memory number) public pure returns (uint32[winningCombinations] memory) {\n        uint32 packedNumber = (number[0] << 24) + (number[1] << 16) + (number[2] << 8) + number[3];\n\n        uint32[winningCombinations] memory combinations;\n\n        //Match 4\n        combinations[0] = packedNumber;\n\n        //Match 3\n        combinations[1] = packedNumber & 0x00FFFFFF;\n        combinations[2] = packedNumber & 0xFF00FFFF;\n        combinations[3] = packedNumber & 0xFFFF00FF;\n        combinations[4] = packedNumber & 0xFFFFFF00;\n\n        //Match 2\n        combinations[5] = packedNumber & 0x0000FFFF;\n        combinations[6] = packedNumber & 0x00FF00FF;\n        combinations[7] = packedNumber & 0x00FFFF00;\n        combinations[8] = packedNumber & 0xFF0000FF;\n        combinations[9] = packedNumber & 0xFF00FF00;\n        combinations[10] = packedNumber & 0xFFFF0000;\n\n        return combinations;\n    }\n\n    function calculateMatchingRewardAmount() internal view returns (uint256[4] memory) {\n        uint32[winningCombinations] memory combinations = generateCombinations(winningNumbers);\n\n        uint256 totalMatched4 = userBuyAmountSum[issueIndex][combinations[0]];\n\n        uint256 totalMatched3 = userBuyAmountSum[issueIndex][combinations[1]];\n        totalMatched3 = totalMatched3.add(userBuyAmountSum[issueIndex][combinations[2]]);\n        totalMatched3 = totalMatched3.add(userBuyAmountSum[issueIndex][combinations[3]]);\n        totalMatched3 = totalMatched3.add(userBuyAmountSum[issueIndex][combinations[4]]);\n        totalMatched3 = totalMatched3.sub(totalMatched4.mul(4)); //Remove overlaps from Matched4 users\n\n        uint256 totalMatched2 = userBuyAmountSum[issueIndex][combinations[5]];\n        totalMatched2 = totalMatched2.add(userBuyAmountSum[issueIndex][combinations[6]]);\n        totalMatched2 = totalMatched2.add(userBuyAmountSum[issueIndex][combinations[7]]);\n        totalMatched2 = totalMatched2.add(userBuyAmountSum[issueIndex][combinations[8]]);\n        totalMatched2 = totalMatched2.add(userBuyAmountSum[issueIndex][combinations[9]]);\n        totalMatched2 = totalMatched2.add(userBuyAmountSum[issueIndex][combinations[10]]);\n        totalMatched2 = totalMatched2.sub(totalMatched3.mul(3)); //Remove overlaps from Matched3 users\n        totalMatched2 = totalMatched2.sub(totalMatched4.mul(6)); //Remove overlaps from Matched4 users\n\n        return [totalAmount, totalMatched4, totalMatched3, totalMatched2];\n    }\n\n    function getMatchingRewardAmount(uint256 _issueIndex, uint256 _matchingNumber) public view returns (uint256) {\n        require(_matchingNumber >= 2 && _matchingNumber <= 4, \"getMatchingRewardAmount: INVALID\");\n        return historyAmount[_issueIndex][5 - _matchingNumber];\n    }\n\n    function getTotalRewards(uint256 _issueIndex) public view returns(uint256) {\n        require (_issueIndex <= issueIndex, '_issueIndex <= issueIndex');\n\n        if(!drawed() && _issueIndex == issueIndex) {\n            return totalAmount;\n        }\n        return historyAmount[_issueIndex][0];\n    }\n\n    function getRewardView(uint256 _tokenId) public view returns(uint256) {\n        uint256 _issueIndex = lotteryNFT.getLotteryIssueIndex(_tokenId);\n        uint8[4] memory lotteryNumbers = lotteryNFT.getLotteryNumbers(_tokenId);\n        uint8[4] memory _winningNumbers = historyNumbers[_issueIndex];\n        require(_winningNumbers[0] != 0, \"not drawed\");\n\n        uint256 matchingNumber = 0;\n        for (uint i = 0; i < lotteryNumbers.length; i++) {\n            if (_winningNumbers[i] == lotteryNumbers[i]) {\n                matchingNumber = matchingNumber + 1;\n            }\n        }\n        uint256 reward = 0;\n        if (matchingNumber > 1) {\n            uint256 amount = lotteryNFT.getLotteryAmount(_tokenId);\n            uint256 poolAmount = getTotalRewards(_issueIndex).mul(allocation[4-matchingNumber]).div(100);\n            reward = amount.mul(1e12).mul(poolAmount).div(getMatchingRewardAmount(_issueIndex, matchingNumber));\n        }\n        return reward.div(1e12);\n    }\n\n    // Safe egg transfer function, just in case if rounding error causes pool to not have enough EGGs.\n    function safeEggTransfer(address _to, uint256 _amount) internal {\n        uint256 eggBal = egg.balanceOf(address(this));\n        if (_amount > eggBal) {\n            egg.transfer(_to, eggBal);\n        } else {\n            egg.transfer(_to, _amount);\n        }\n    }\n\n    // Update admin address by the previous dev.\n    function setAdmin(address _adminAddress) external onlyOwner {\n        require(_adminAddress != address(0));\n        adminAddress = _adminAddress;\n        emit SetAdmin(msg.sender, _adminAddress);\n    }\n\n    // Withdraw without caring about rewards. EMERGENCY ONLY.\n    function adminWithdraw(uint256 _amount) external onlyAdmin {\n        egg.safeTransfer(address(msg.sender), _amount);\n        emit DevWithdraw(msg.sender, _amount);\n    }\n\n    // Set the minimum price for one ticket\n    function setMinPrice(uint256 _price) external onlyAdmin {\n        minPrice = _price;\n        emit SetMinPrice(msg.sender, _price);\n    }\n\n    // Set the max number to be drawed\n    function setMaxNumber(uint8 _maxNumber) external onlyAdmin {\n        maxNumber = _maxNumber;\n        emit SetMaxNumber(msg.sender, _maxNumber);\n    }\n\n    // Set the allocation for one reward\n    function setAllocation(uint8 _allcation1, uint8 _allcation2, uint8 _allcation3) external onlyAdmin {\n        allocation = [_allcation1, _allcation2, _allcation3];\n        emit SetAllocation(msg.sender, _allcation1, _allcation2, _allcation3);\n    }\n\n}",
  "sourcePath": "/home/dream/dev/goose-contracts/contracts/lottery/Lottery.sol",
  "compiler": {
    "name": "solc",
    "version": "0.6.12+commit.27d51765.Emscripten.clang"
  },
  "schemaVersion": "3.4.1",
  "updatedAt": "2021-06-10T06:40:56.755Z",
  "devdoc": {
    "kind": "dev",
    "methods": {
      "owner()": {
        "details": "Returns the address of the current owner."
      },
      "renounceOwnership()": {
        "details": "Leaves the contract without owner. It will not be possible to call `onlyOwner` functions anymore. Can only be called by the current owner. NOTE: Renouncing ownership will leave the contract without an owner, thereby removing any functionality that is only available to the owner."
      },
      "transferOwnership(address)": {
        "details": "Transfers ownership of the contract to a new account (`newOwner`). Can only be called by the current owner."
      }
    },
    "version": 1
  },
  "userdoc": {
    "kind": "user",
    "methods": {},
    "version": 1
  }
}