{
  "contractName": "LotteryNFT",
  "abi": [
    {
      "inputs": [],
      "stateMutability": "nonpayable",
      "type": "constructor"
    },
    {
      "anonymous": false,
      "inputs": [
        {
          "indexed": true,
          "internalType": "address",
          "name": "owner",
          "type": "address"
        },
        {
          "indexed": true,
          "internalType": "address",
          "name": "approved",
          "type": "address"
        },
        {
          "indexed": true,
          "internalType": "uint256",
          "name": "tokenId",
          "type": "uint256"
        }
      ],
      "name": "Approval",
      "type": "event"
    },
    {
      "anonymous": false,
      "inputs": [
        {
          "indexed": true,
          "internalType": "address",
          "name": "owner",
          "type": "address"
        },
        {
          "indexed": true,
          "internalType": "address",
          "name": "operator",
          "type": "address"
        },
        {
          "indexed": false,
          "internalType": "bool",
          "name": "approved",
          "type": "bool"
        }
      ],
      "name": "ApprovalForAll",
      "type": "event"
    },
    {
      "anonymous": false,
      "inputs": [
        {
          "indexed": true,
          "internalType": "address",
          "name": "previousOwner",
          "type": "address"
        },
        {
          "indexed": true,
          "internalType": "address",
          "name": "newOwner",
          "type": "address"
        }
      ],
      "name": "OwnershipTransferred",
      "type": "event"
    },
    {
      "anonymous": false,
      "inputs": [
        {
          "indexed": true,
          "internalType": "address",
          "name": "from",
          "type": "address"
        },
        {
          "indexed": true,
          "internalType": "address",
          "name": "to",
          "type": "address"
        },
        {
          "indexed": true,
          "internalType": "uint256",
          "name": "tokenId",
          "type": "uint256"
        }
      ],
      "name": "Transfer",
      "type": "event"
    },
    {
      "inputs": [
        {
          "internalType": "address",
          "name": "to",
          "type": "address"
        },
        {
          "internalType": "uint256",
          "name": "tokenId",
          "type": "uint256"
        }
      ],
      "name": "approve",
      "outputs": [],
      "stateMutability": "nonpayable",
      "type": "function"
    },
    {
      "inputs": [
        {
          "internalType": "address",
          "name": "owner",
          "type": "address"
        }
      ],
      "name": "balanceOf",
      "outputs": [
        {
          "internalType": "uint256",
          "name": "",
          "type": "uint256"
        }
      ],
      "stateMutability": "view",
      "type": "function"
    },
    {
      "inputs": [],
      "name": "baseURI",
      "outputs": [
        {
          "internalType": "string",
          "name": "",
          "type": "string"
        }
      ],
      "stateMutability": "view",
      "type": "function"
    },
    {
      "inputs": [
        {
          "internalType": "uint256",
          "name": "",
          "type": "uint256"
        }
      ],
      "name": "claimInfo",
      "outputs": [
        {
          "internalType": "bool",
          "name": "",
          "type": "bool"
        }
      ],
      "stateMutability": "view",
      "type": "function"
    },
    {
      "inputs": [
        {
          "internalType": "uint256",
          "name": "tokenId",
          "type": "uint256"
        }
      ],
      "name": "getApproved",
      "outputs": [
        {
          "internalType": "address",
          "name": "",
          "type": "address"
        }
      ],
      "stateMutability": "view",
      "type": "function"
    },
    {
      "inputs": [
        {
          "internalType": "address",
          "name": "owner",
          "type": "address"
        },
        {
          "internalType": "address",
          "name": "operator",
          "type": "address"
        }
      ],
      "name": "isApprovedForAll",
      "outputs": [
        {
          "internalType": "bool",
          "name": "",
          "type": "bool"
        }
      ],
      "stateMutability": "view",
      "type": "function"
    },
    {
      "inputs": [
        {
          "internalType": "uint256",
          "name": "",
          "type": "uint256"
        }
      ],
      "name": "issueIndex",
      "outputs": [
        {
          "internalType": "uint256",
          "name": "",
          "type": "uint256"
        }
      ],
      "stateMutability": "view",
      "type": "function"
    },
    {
      "inputs": [
        {
          "internalType": "uint256",
          "name": "",
          "type": "uint256"
        }
      ],
      "name": "lotteryAmount",
      "outputs": [
        {
          "internalType": "uint256",
          "name": "",
          "type": "uint256"
        }
      ],
      "stateMutability": "view",
      "type": "function"
    },
    {
      "inputs": [
        {
          "internalType": "uint256",
          "name": "",
          "type": "uint256"
        },
        {
          "internalType": "uint256",
          "name": "",
          "type": "uint256"
        }
      ],
      "name": "lotteryInfo",
      "outputs": [
        {
          "internalType": "uint8",
          "name": "",
          "type": "uint8"
        }
      ],
      "stateMutability": "view",
      "type": "function"
    },
    {
      "inputs": [],
      "name": "name",
      "outputs": [
        {
          "internalType": "string",
          "name": "",
          "type": "string"
        }
      ],
      "stateMutability": "view",
      "type": "function"
    },
    {
      "inputs": [],
      "name": "owner",
      "outputs": [
        {
          "internalType": "address",
          "name": "",
          "type": "address"
        }
      ],
      "stateMutability": "view",
      "type": "function"
    },
    {
      "inputs": [
        {
          "internalType": "uint256",
          "name": "tokenId",
          "type": "uint256"
        }
      ],
      "name": "ownerOf",
      "outputs": [
        {
          "internalType": "address",
          "name": "",
          "type": "address"
        }
      ],
      "stateMutability": "view",
      "type": "function"
    },
    {
      "inputs": [],
      "name": "renounceOwnership",
      "outputs": [],
      "stateMutability": "nonpayable",
      "type": "function"
    },
    {
      "inputs": [
        {
          "internalType": "address",
          "name": "from",
          "type": "address"
        },
        {
          "internalType": "address",
          "name": "to",
          "type": "address"
        },
        {
          "internalType": "uint256",
          "name": "tokenId",
          "type": "uint256"
        }
      ],
      "name": "safeTransferFrom",
      "outputs": [],
      "stateMutability": "nonpayable",
      "type": "function"
    },
    {
      "inputs": [
        {
          "internalType": "address",
          "name": "from",
          "type": "address"
        },
        {
          "internalType": "address",
          "name": "to",
          "type": "address"
        },
        {
          "internalType": "uint256",
          "name": "tokenId",
          "type": "uint256"
        },
        {
          "internalType": "bytes",
          "name": "_data",
          "type": "bytes"
        }
      ],
      "name": "safeTransferFrom",
      "outputs": [],
      "stateMutability": "nonpayable",
      "type": "function"
    },
    {
      "inputs": [
        {
          "internalType": "address",
          "name": "operator",
          "type": "address"
        },
        {
          "internalType": "bool",
          "name": "approved",
          "type": "bool"
        }
      ],
      "name": "setApprovalForAll",
      "outputs": [],
      "stateMutability": "nonpayable",
      "type": "function"
    },
    {
      "inputs": [
        {
          "internalType": "bytes4",
          "name": "interfaceId",
          "type": "bytes4"
        }
      ],
      "name": "supportsInterface",
      "outputs": [
        {
          "internalType": "bool",
          "name": "",
          "type": "bool"
        }
      ],
      "stateMutability": "view",
      "type": "function"
    },
    {
      "inputs": [],
      "name": "symbol",
      "outputs": [
        {
          "internalType": "string",
          "name": "",
          "type": "string"
        }
      ],
      "stateMutability": "view",
      "type": "function"
    },
    {
      "inputs": [
        {
          "internalType": "uint256",
          "name": "index",
          "type": "uint256"
        }
      ],
      "name": "tokenByIndex",
      "outputs": [
        {
          "internalType": "uint256",
          "name": "",
          "type": "uint256"
        }
      ],
      "stateMutability": "view",
      "type": "function"
    },
    {
      "inputs": [
        {
          "internalType": "address",
          "name": "owner",
          "type": "address"
        },
        {
          "internalType": "uint256",
          "name": "index",
          "type": "uint256"
        }
      ],
      "name": "tokenOfOwnerByIndex",
      "outputs": [
        {
          "internalType": "uint256",
          "name": "",
          "type": "uint256"
        }
      ],
      "stateMutability": "view",
      "type": "function"
    },
    {
      "inputs": [
        {
          "internalType": "uint256",
          "name": "tokenId",
          "type": "uint256"
        }
      ],
      "name": "tokenURI",
      "outputs": [
        {
          "internalType": "string",
          "name": "",
          "type": "string"
        }
      ],
      "stateMutability": "view",
      "type": "function"
    },
    {
      "inputs": [],
      "name": "totalSupply",
      "outputs": [
        {
          "internalType": "uint256",
          "name": "",
          "type": "uint256"
        }
      ],
      "stateMutability": "view",
      "type": "function"
    },
    {
      "inputs": [
        {
          "internalType": "address",
          "name": "from",
          "type": "address"
        },
        {
          "internalType": "address",
          "name": "to",
          "type": "address"
        },
        {
          "internalType": "uint256",
          "name": "tokenId",
          "type": "uint256"
        }
      ],
      "name": "transferFrom",
      "outputs": [],
      "stateMutability": "nonpayable",
      "type": "function"
    },
    {
      "inputs": [
        {
          "internalType": "address",
          "name": "newOwner",
          "type": "address"
        }
      ],
      "name": "transferOwnership",
      "outputs": [],
      "stateMutability": "nonpayable",
      "type": "function"
    },
    {
      "inputs": [
        {
          "internalType": "address",
          "name": "player",
          "type": "address"
        },
        {
          "internalType": "uint8[4]",
          "name": "_lotteryNumbers",
          "type": "uint8[4]"
        },
        {
          "internalType": "uint256",
          "name": "_amount",
          "type": "uint256"
        },
        {
          "internalType": "uint256",
          "name": "_issueIndex",
          "type": "uint256"
        }
      ],
      "name": "newLotteryItem",
      "outputs": [
        {
          "internalType": "uint256",
          "name": "",
          "type": "uint256"
        }
      ],
      "stateMutability": "nonpayable",
      "type": "function"
    },
    {
      "inputs": [
        {
          "internalType": "uint256",
          "name": "tokenId",
          "type": "uint256"
        }
      ],
      "name": "getLotteryNumbers",
      "outputs": [
        {
          "internalType": "uint8[4]",
          "name": "",
          "type": "uint8[4]"
        }
      ],
      "stateMutability": "view",
      "type": "function"
    },
    {
      "inputs": [
        {
          "internalType": "uint256",
          "name": "tokenId",
          "type": "uint256"
        }
      ],
      "name": "getLotteryAmount",
      "outputs": [
        {
          "internalType": "uint256",
          "name": "",
          "type": "uint256"
        }
      ],
      "stateMutability": "view",
      "type": "function"
    },
    {
      "inputs": [
        {
          "internalType": "uint256",
          "name": "tokenId",
          "type": "uint256"
        }
      ],
      "name": "getLotteryIssueIndex",
      "outputs": [
        {
          "internalType": "uint256",
          "name": "",
          "type": "uint256"
        }
      ],
      "stateMutability": "view",
      "type": "function"
    },
    {
      "inputs": [
        {
          "internalType": "uint256",
          "name": "tokenId",
          "type": "uint256"
        }
      ],
      "name": "claimReward",
      "outputs": [],
      "stateMutability": "nonpayable",
      "type": "function"
    },
    {
      "inputs": [
        {
          "internalType": "uint256[]",
          "name": "tokenIds",
          "type": "uint256[]"
        }
      ],
      "name": "multiClaimReward",
      "outputs": [],
      "stateMutability": "nonpayable",
      "type": "function"
    },
    {
      "inputs": [
        {
          "internalType": "uint256",
          "name": "tokenId",
          "type": "uint256"
        }
      ],
      "name": "burn",
      "outputs": [],
      "stateMutability": "nonpayable",
      "type": "function"
    },
    {
      "inputs": [
        {
          "internalType": "uint256",
          "name": "tokenId",
          "type": "uint256"
        }
      ],
      "name": "getClaimStatus",
      "outputs": [
        {
          "internalType": "bool",
          "name": "",
          "type": "bool"
        }
      ],
      "stateMutability": "view",
      "type": "function"
    }
  ],
  "bytecode": "0x60806040523480156200001157600080fd5b506040518060400160405280601a81526020017f476f6c64656e476f6f7365204c6f7474657279205469636b65740000000000008152506040518060400160405280600381526020017f474c540000000000000000000000000000000000000000000000000000000000815250620000966301ffc9a760e01b620001c960201b60201c565b8160069080519060200190620000ae929190620002a9565b508060079080519060200190620000c7929190620002a9565b50620000e06380ac58cd60e01b620001c960201b60201c565b620000f8635b5e139f60e01b620001c960201b60201c565b6200011063780e9d6360e01b620001c960201b60201c565b5050600062000124620002a160201b60201c565b905080600a60006101000a81548173ffffffffffffffffffffffffffffffffffffffff021916908373ffffffffffffffffffffffffffffffffffffffff1602179055508073ffffffffffffffffffffffffffffffffffffffff16600073ffffffffffffffffffffffffffffffffffffffff167f8be0079c531659141344cd1fd0a4f28419497f9722a3daafe3b4186f6b6457e060405160405180910390a350620003c4565b63ffffffff60e01b817bffffffffffffffffffffffffffffffffffffffffffffffffffffffff1916141562000235576040517f08c379a00000000000000000000000000000000000000000000000000000000081526004016200022c9062000391565b60405180910390fd5b6001600080837bffffffffffffffffffffffffffffffffffffffffffffffffffffffff19167bffffffffffffffffffffffffffffffffffffffffffffffffffffffff1916815260200190815260200160002060006101000a81548160ff02191690831515021790555050565b600033905090565b828054600181600116156101000203166002900490600052602060002090601f016020900481019282601f10620002ec57805160ff19168380011785556200031d565b828001600101855582156200031d579182015b828111156200031c578251825591602001919060010190620002ff565b5b5090506200032c919062000330565b5090565b5b808211156200034b57600081600090555060010162000331565b5090565b60006200035e601c83620003b3565b91507f4552433136353a20696e76616c696420696e74657266616365206964000000006000830152602082019050919050565b60006020820190508181036000830152620003ac816200034f565b9050919050565b600082825260208201905092915050565b61407380620003d46000396000f3fe608060405234801561001057600080fd5b50600436106101f05760003560e01c80636352211e1161010f578063a22cb465116100a2578063c87b56dd11610071578063c87b56dd14610615578063e985e9c514610645578063f2fde38b14610675578063f7a0c0ca14610691576101f0565b8063a22cb46514610591578063ae169a50146105ad578063b88d4fde146105c9578063c13f690b146105e5576101f0565b8063715018a6116100de578063715018a61461052f57806374310355146105395780638da5cb5b1461055557806395d89b4114610573576101f0565b80636352211e146104815780636575243f146104b15780636c0360eb146104e157806370a08231146104ff576101f0565b80632f745c591161018757806342966c681161015657806342966c68146103d55780634f6ccce7146103f15780635c362233146104215780635f8e26a714610451576101f0565b80632f745c591461032957806336dbd2f91461035957806337391c001461038957806342842e0e146103b9576101f0565b8063095ea7b3116101c3578063095ea7b3146102a357806318160ddd146102bf5780631bf1e00f146102dd57806323b872dd1461030d576101f0565b806301ffc9a7146101f557806306fdde0314610225578063081812fc1461024357806308c7662514610273575b600080fd5b61020f600480360381019061020a9190613010565b6106c1565b60405161021c9190613a83565b60405180910390f35b61022d610728565b60405161023a9190613a9e565b60405180910390f35b61025d60048036038101906102589190613062565b6107ca565b60405161026a9190613a01565b60405180910390f35b61028d60048036038101906102889190613062565b61084f565b60405161029a9190613d20565b60405180910390f35b6102bd60048036038101906102b89190612f93565b610867565b005b6102c761097f565b6040516102d49190613d20565b60405180910390f35b6102f760048036038101906102f29190613062565b610990565b6040516103049190613d20565b60405180910390f35b61032760048036038101906103229190612e2a565b6109ad565b005b610343600480360381019061033e9190612f93565b610a0d565b6040516103509190613d20565b60405180910390f35b610373600480360381019061036e9190613062565b610a68565b6040516103809190613a83565b60405180910390f35b6103a3600480360381019061039e9190612ef4565b610a92565b6040516103b09190613d20565b60405180910390f35b6103d360048036038101906103ce9190612e2a565b610bac565b005b6103ef60048036038101906103ea9190613062565b610bcc565b005b61040b60048036038101906104069190613062565b610c6f565b6040516104189190613d20565b60405180910390f35b61043b60048036038101906104369190613062565b610c92565b6040516104489190613a83565b60405180910390f35b61046b60048036038101906104669190613062565b610cb2565b6040516104789190613a68565b60405180910390f35b61049b60048036038101906104969190613062565b610d36565b6040516104a89190613a01565b60405180910390f35b6104cb60048036038101906104c6919061308b565b610d6d565b6040516104d89190613d3b565b60405180910390f35b6104e9610da3565b6040516104f69190613a9e565b60405180910390f35b61051960048036038101906105149190612dc5565b610e45565b6040516105269190613d20565b60405180910390f35b610537610f04565b005b610553600480360381019061054e9190612fcf565b61105c565b005b61055d61114f565b60405161056a9190613a01565b60405180910390f35b61057b611179565b6040516105889190613a9e565b60405180910390f35b6105ab60048036038101906105a69190612f57565b61121b565b005b6105c760048036038101906105c29190613062565b61139c565b005b6105e360048036038101906105de9190612e79565b611462565b005b6105ff60048036038101906105fa9190613062565b6114c4565b60405161060c9190613d20565b60405180910390f35b61062f600480360381019061062a9190613062565b6114dc565b60405161063c9190613a9e565b60405180910390f35b61065f600480360381019061065a9190612dee565b611667565b60405161066c9190613a83565b60405180910390f35b61068f600480360381019061068a9190612dc5565b6116fb565b005b6106ab60048036038101906106a69190613062565b6118c2565b6040516106b89190613d20565b60405180910390f35b6000806000837bffffffffffffffffffffffffffffffffffffffffffffffffffffffff19167bffffffffffffffffffffffffffffffffffffffffffffffffffffffff1916815260200190815260200160002060009054906101000a900460ff169050919050565b606060068054600181600116156101000203166002900480601f0160208091040260200160405190810160405280929190818152602001828054600181600116156101000203166002900480156107c05780601f10610795576101008083540402835291602001916107c0565b820191906000526020600020905b8154815290600101906020018083116107a357829003601f168201915b5050505050905090565b60006107d5826118df565b610814576040517f08c379a000000000000000000000000000000000000000000000000000000000815260040161080b90613c40565b60405180910390fd5b6004600083815260200190815260200160002060009054906101000a900473ffffffffffffffffffffffffffffffffffffffff169050919050565b600e6020528060005260406000206000915090505481565b600061087282610d36565b90508073ffffffffffffffffffffffffffffffffffffffff168373ffffffffffffffffffffffffffffffffffffffff1614156108e3576040517f08c379a00000000000000000000000000000000000000000000000000000000081526004016108da90613cc0565b60405180910390fd5b8073ffffffffffffffffffffffffffffffffffffffff166109026118fc565b73ffffffffffffffffffffffffffffffffffffffff16148061093157506109308161092b6118fc565b611667565b5b610970576040517f08c379a000000000000000000000000000000000000000000000000000000000815260040161096790613bc0565b60405180910390fd5b61097a8383611904565b505050565b600061098b60026119bd565b905090565b6000600e6000838152602001908152602001600020549050919050565b6109be6109b86118fc565b826119d2565b6109fd576040517f08c379a00000000000000000000000000000000000000000000000000000000081526004016109f490613ce0565b60405180910390fd5b610a08838383611ab0565b505050565b6000610a6082600160008673ffffffffffffffffffffffffffffffffffffffff1673ffffffffffffffffffffffffffffffffffffffff168152602001908152602001600020611cc790919063ffffffff16565b905092915050565b6000600f600083815260200190815260200160002060009054906101000a900460ff169050919050565b6000610a9c6118fc565b73ffffffffffffffffffffffffffffffffffffffff16600a60009054906101000a900473ffffffffffffffffffffffffffffffffffffffff1673ffffffffffffffffffffffffffffffffffffffff1614610b2b576040517f08c379a0000000000000000000000000000000000000000000000000000000008152600401610b2290613c60565b60405180910390fd5b610b35600b611ce1565b6000610b41600b611cf7565b9050610b4d8682611d05565b84600c6000838152602001908152602001600020906004610b6f929190612ab3565b5083600d60008381526020019081526020016000208190555082600e60008381526020019081526020016000208190555080915050949350505050565b610bc783838360405180602001604052806000815250611462565b505050565b610bd46118fc565b73ffffffffffffffffffffffffffffffffffffffff16600a60009054906101000a900473ffffffffffffffffffffffffffffffffffffffff1673ffffffffffffffffffffffffffffffffffffffff1614610c63576040517f08c379a0000000000000000000000000000000000000000000000000000000008152600401610c5a90613c60565b60405180910390fd5b610c6c81611e93565b50565b600080610c86836002611fcd90919063ffffffff16565b50905080915050919050565b600f6020528060005260406000206000915054906101000a900460ff1681565b610cba612b4d565b600c6000838152602001908152602001600020600480602002604051908101604052809291908260048015610d2a576020028201916000905b82829054906101000a900460ff1660ff1681526020019060010190602082600001049283019260010382029150808411610cf35790505b50505050509050919050565b6000610d6682604051806060016040528060298152602001614015602991396002611ff99092919063ffffffff16565b9050919050565b600c6020528160005260406000208160048110610d8657fe5b60209182820401919006915091509054906101000a900460ff1681565b606060098054600181600116156101000203166002900480601f016020809104026020016040519081016040528092919081815260200182805460018160011615610100020316600290048015610e3b5780601f10610e1057610100808354040283529160200191610e3b565b820191906000526020600020905b815481529060010190602001808311610e1e57829003601f168201915b5050505050905090565b60008073ffffffffffffffffffffffffffffffffffffffff168273ffffffffffffffffffffffffffffffffffffffff161415610eb6576040517f08c379a0000000000000000000000000000000000000000000000000000000008152600401610ead90613be0565b60405180910390fd5b610efd600160008473ffffffffffffffffffffffffffffffffffffffff1673ffffffffffffffffffffffffffffffffffffffff168152602001908152602001600020612018565b9050919050565b610f0c6118fc565b73ffffffffffffffffffffffffffffffffffffffff16600a60009054906101000a900473ffffffffffffffffffffffffffffffffffffffff1673ffffffffffffffffffffffffffffffffffffffff1614610f9b576040517f08c379a0000000000000000000000000000000000000000000000000000000008152600401610f9290613c60565b60405180910390fd5b600073ffffffffffffffffffffffffffffffffffffffff16600a60009054906101000a900473ffffffffffffffffffffffffffffffffffffffff1673ffffffffffffffffffffffffffffffffffffffff167f8be0079c531659141344cd1fd0a4f28419497f9722a3daafe3b4186f6b6457e060405160405180910390a36000600a60006101000a81548173ffffffffffffffffffffffffffffffffffffffff021916908373ffffffffffffffffffffffffffffffffffffffff160217905550565b6110646118fc565b73ffffffffffffffffffffffffffffffffffffffff16600a60009054906101000a900473ffffffffffffffffffffffffffffffffffffffff1673ffffffffffffffffffffffffffffffffffffffff16146110f3576040517f08c379a00000000000000000000000000000000000000000000000000000000081526004016110ea90613c60565b60405180910390fd5b60005b815181101561114b576001600f600084848151811061111157fe5b6020026020010151815260200190815260200160002060006101000a81548160ff02191690831515021790555080806001019150506110f6565b5050565b6000600a60009054906101000a900473ffffffffffffffffffffffffffffffffffffffff16905090565b606060078054600181600116156101000203166002900480601f0160208091040260200160405190810160405280929190818152602001828054600181600116156101000203166002900480156112115780601f106111e657610100808354040283529160200191611211565b820191906000526020600020905b8154815290600101906020018083116111f457829003601f168201915b5050505050905090565b6112236118fc565b73ffffffffffffffffffffffffffffffffffffffff168273ffffffffffffffffffffffffffffffffffffffff161415611291576040517f08c379a000000000000000000000000000000000000000000000000000000000815260040161128890613b60565b60405180910390fd5b806005600061129e6118fc565b73ffffffffffffffffffffffffffffffffffffffff1673ffffffffffffffffffffffffffffffffffffffff16815260200190815260200160002060008473ffffffffffffffffffffffffffffffffffffffff1673ffffffffffffffffffffffffffffffffffffffff16815260200190815260200160002060006101000a81548160ff0219169083151502179055508173ffffffffffffffffffffffffffffffffffffffff1661134b6118fc565b73ffffffffffffffffffffffffffffffffffffffff167f17307eab39ab6107e8899845ad3d59bd9653f200f220920489ca2b5937696c31836040516113909190613a83565b60405180910390a35050565b6113a46118fc565b73ffffffffffffffffffffffffffffffffffffffff16600a60009054906101000a900473ffffffffffffffffffffffffffffffffffffffff1673ffffffffffffffffffffffffffffffffffffffff1614611433576040517f08c379a000000000000000000000000000000000000000000000000000000000815260040161142a90613c60565b60405180910390fd5b6001600f600083815260200190815260200160002060006101000a81548160ff02191690831515021790555050565b61147361146d6118fc565b836119d2565b6114b2576040517f08c379a00000000000000000000000000000000000000000000000000000000081526004016114a990613ce0565b60405180910390fd5b6114be8484848461202d565b50505050565b600d6020528060005260406000206000915090505481565b60606114e7826118df565b611526576040517f08c379a000000000000000000000000000000000000000000000000000000000815260040161151d90613ca0565b60405180910390fd5b6060600860008481526020019081526020016000208054600181600116156101000203166002900480601f0160208091040260200160405190810160405280929190818152602001828054600181600116156101000203166002900480156115cf5780601f106115a4576101008083540402835291602001916115cf565b820191906000526020600020905b8154815290600101906020018083116115b257829003601f168201915b505050505090506000600980546001816001161561010002031660029004905014156115fe5780915050611662565b6000815111156116335760098160405160200161161c9291906139dd565b604051602081830303815290604052915050611662565b600961163e84612089565b60405160200161164f9291906139dd565b6040516020818303038152906040529150505b919050565b6000600560008473ffffffffffffffffffffffffffffffffffffffff1673ffffffffffffffffffffffffffffffffffffffff16815260200190815260200160002060008373ffffffffffffffffffffffffffffffffffffffff1673ffffffffffffffffffffffffffffffffffffffff16815260200190815260200160002060009054906101000a900460ff16905092915050565b6117036118fc565b73ffffffffffffffffffffffffffffffffffffffff16600a60009054906101000a900473ffffffffffffffffffffffffffffffffffffffff1673ffffffffffffffffffffffffffffffffffffffff1614611792576040517f08c379a000000000000000000000000000000000000000000000000000000000815260040161178990613c60565b60405180910390fd5b600073ffffffffffffffffffffffffffffffffffffffff168173ffffffffffffffffffffffffffffffffffffffff161415611802576040517f08c379a00000000000000000000000000000000000000000000000000000000081526004016117f990613b00565b60405180910390fd5b8073ffffffffffffffffffffffffffffffffffffffff16600a60009054906101000a900473ffffffffffffffffffffffffffffffffffffffff1673ffffffffffffffffffffffffffffffffffffffff167f8be0079c531659141344cd1fd0a4f28419497f9722a3daafe3b4186f6b6457e060405160405180910390a380600a60006101000a81548173ffffffffffffffffffffffffffffffffffffffff021916908373ffffffffffffffffffffffffffffffffffffffff16021790555050565b6000600d6000838152602001908152602001600020549050919050565b60006118f58260026121d090919063ffffffff16565b9050919050565b600033905090565b816004600083815260200190815260200160002060006101000a81548173ffffffffffffffffffffffffffffffffffffffff021916908373ffffffffffffffffffffffffffffffffffffffff160217905550808273ffffffffffffffffffffffffffffffffffffffff1661197783610d36565b73ffffffffffffffffffffffffffffffffffffffff167f8c5be1e5ebec7d5bd14f71427d1e84f3dd0314c0f7b2291e5b200ac8c7c3b92560405160405180910390a45050565b60006119cb826000016121ea565b9050919050565b60006119dd826118df565b611a1c576040517f08c379a0000000000000000000000000000000000000000000000000000000008152600401611a1390613ba0565b60405180910390fd5b6000611a2783610d36565b90508073ffffffffffffffffffffffffffffffffffffffff168473ffffffffffffffffffffffffffffffffffffffff161480611a9657508373ffffffffffffffffffffffffffffffffffffffff16611a7e846107ca565b73ffffffffffffffffffffffffffffffffffffffff16145b80611aa75750611aa68185611667565b5b91505092915050565b8273ffffffffffffffffffffffffffffffffffffffff16611ad082610d36565b73ffffffffffffffffffffffffffffffffffffffff1614611b26576040517f08c379a0000000000000000000000000000000000000000000000000000000008152600401611b1d90613c80565b60405180910390fd5b600073ffffffffffffffffffffffffffffffffffffffff168273ffffffffffffffffffffffffffffffffffffffff161415611b96576040517f08c379a0000000000000000000000000000000000000000000000000000000008152600401611b8d90613b40565b60405180910390fd5b611ba18383836121fb565b611bac600082611904565b611bfd81600160008673ffffffffffffffffffffffffffffffffffffffff1673ffffffffffffffffffffffffffffffffffffffff16815260200190815260200160002061220090919063ffffffff16565b50611c4f81600160008573ffffffffffffffffffffffffffffffffffffffff1673ffffffffffffffffffffffffffffffffffffffff16815260200190815260200160002061221a90919063ffffffff16565b50611c66818360026122349092919063ffffffff16565b50808273ffffffffffffffffffffffffffffffffffffffff168473ffffffffffffffffffffffffffffffffffffffff167fddf252ad1be2c89b69c2b068fc378daa952ba7f163c4a11628f55a4df523b3ef60405160405180910390a4505050565b6000611cd68360000183612269565b60001c905092915050565b6001816000016000828254019250508190555050565b600081600001549050919050565b600073ffffffffffffffffffffffffffffffffffffffff168273ffffffffffffffffffffffffffffffffffffffff161415611d75576040517f08c379a0000000000000000000000000000000000000000000000000000000008152600401611d6c90613c20565b60405180910390fd5b611d7e816118df565b15611dbe576040517f08c379a0000000000000000000000000000000000000000000000000000000008152600401611db590613b20565b60405180910390fd5b611dca600083836121fb565b611e1b81600160008573ffffffffffffffffffffffffffffffffffffffff1673ffffffffffffffffffffffffffffffffffffffff16815260200190815260200160002061221a90919063ffffffff16565b50611e32818360026122349092919063ffffffff16565b50808273ffffffffffffffffffffffffffffffffffffffff16600073ffffffffffffffffffffffffffffffffffffffff167fddf252ad1be2c89b69c2b068fc378daa952ba7f163c4a11628f55a4df523b3ef60405160405180910390a45050565b6000611e9e82610d36565b9050611eac816000846121fb565b611eb7600083611904565b60006008600084815260200190815260200160002080546001816001161561010002031660029004905014611f0657600860008381526020019081526020016000206000611f059190612b6f565b5b611f5782600160008473ffffffffffffffffffffffffffffffffffffffff1673ffffffffffffffffffffffffffffffffffffffff16815260200190815260200160002061220090919063ffffffff16565b50611f6c8260026122d690919063ffffffff16565b5081600073ffffffffffffffffffffffffffffffffffffffff168273ffffffffffffffffffffffffffffffffffffffff167fddf252ad1be2c89b69c2b068fc378daa952ba7f163c4a11628f55a4df523b3ef60405160405180910390a45050565b600080600080611fe086600001866122f0565b915091508160001c8160001c9350935050509250929050565b600061200c846000018460001b84612373565b60001c90509392505050565b600061202682600001612404565b9050919050565b612038848484611ab0565b61204484848484612415565b612083576040517f08c379a000000000000000000000000000000000000000000000000000000000815260040161207a90613ae0565b60405180910390fd5b50505050565b606060008214156120d1576040518060400160405280600181526020017f300000000000000000000000000000000000000000000000000000000000000081525090506121cb565b600082905060005b600082146120fb578080600101915050600a82816120f357fe5b0491506120d9565b60608167ffffffffffffffff8111801561211457600080fd5b506040519080825280601f01601f1916602001820160405280156121475781602001600182028036833780820191505090505b50905060006001830390508593505b600084146121c357600a848161216857fe5b0660300160f81b8282806001900393508151811061218257fe5b60200101907effffffffffffffffffffffffffffffffffffffffffffffffffffffffffffff1916908160001a905350600a84816121bb57fe5b049350612156565b819450505050505b919050565b60006121e2836000018360001b612579565b905092915050565b600081600001805490509050919050565b505050565b6000612212836000018360001b61259c565b905092915050565b600061222c836000018360001b612684565b905092915050565b6000612260846000018460001b8473ffffffffffffffffffffffffffffffffffffffff1660001b6126f4565b90509392505050565b6000818360000180549050116122b4576040517f08c379a00000000000000000000000000000000000000000000000000000000081526004016122ab90613ac0565b60405180910390fd5b8260000182815481106122c357fe5b9060005260206000200154905092915050565b60006122e8836000018360001b6127d0565b905092915050565b6000808284600001805490501161233c576040517f08c379a000000000000000000000000000000000000000000000000000000000815260040161233390613c00565b60405180910390fd5b600084600001848154811061234d57fe5b906000526020600020906002020190508060000154816001015492509250509250929050565b600080846001016000858152602001908152602001600020549050600081141583906123d5576040517f08c379a00000000000000000000000000000000000000000000000000000000081526004016123cc9190613a9e565b60405180910390fd5b508460000160018203815481106123e857fe5b9060005260206000209060020201600101549150509392505050565b600081600001805490509050919050565b60006124368473ffffffffffffffffffffffffffffffffffffffff166128e9565b6124435760019050612571565b606061250a63150b7a0260e01b6124586118fc565b88878760405160240161246e9493929190613a1c565b604051602081830303815290604052907bffffffffffffffffffffffffffffffffffffffffffffffffffffffff19166020820180517bffffffffffffffffffffffffffffffffffffffffffffffffffffffff8381831617835250505050604051806060016040528060328152602001613fe3603291398773ffffffffffffffffffffffffffffffffffffffff166128fc9092919063ffffffff16565b90506000818060200190518101906125229190613039565b905063150b7a0260e01b7bffffffffffffffffffffffffffffffffffffffffffffffffffffffff1916817bffffffffffffffffffffffffffffffffffffffffffffffffffffffff191614925050505b949350505050565b600080836001016000848152602001908152602001600020541415905092915050565b6000808360010160008481526020019081526020016000205490506000811461267857600060018203905060006001866000018054905003905060008660000182815481106125e757fe5b906000526020600020015490508087600001848154811061260457fe5b906000526020600020018190555060018301876001016000838152602001908152602001600020819055508660000180548061263c57fe5b6001900381819060005260206000200160009055905586600101600087815260200190815260200160002060009055600194505050505061267e565b60009150505b92915050565b60006126908383612914565b6126e95782600001829080600181540180825580915050600190039060005260206000200160009091909190915055826000018054905083600101600084815260200190815260200160002081905550600190506126ee565b600090505b92915050565b600080846001016000858152602001908152602001600020549050600081141561279b578460000160405180604001604052808681526020018581525090806001815401808255809150506001900390600052602060002090600202016000909190919091506000820151816000015560208201518160010155505084600001805490508560010160008681526020019081526020016000208190555060019150506127c9565b828560000160018303815481106127ae57fe5b90600052602060002090600202016001018190555060009150505b9392505050565b600080836001016000848152602001908152602001600020549050600081146128dd576000600182039050600060018660000180549050039050600086600001828154811061281b57fe5b906000526020600020906002020190508087600001848154811061283b57fe5b906000526020600020906002020160008201548160000155600182015481600101559050506001830187600101600083600001548152602001908152602001600020819055508660000180548061288e57fe5b60019003818190600052602060002090600202016000808201600090556001820160009055505090558660010160008781526020019081526020016000206000905560019450505050506128e3565b60009150505b92915050565b600080823b905060008111915050919050565b606061290b8484600085612937565b90509392505050565b600080836001016000848152602001908152602001600020541415905092915050565b60608247101561297c576040517f08c379a000000000000000000000000000000000000000000000000000000000815260040161297390613b80565b60405180910390fd5b612985856128e9565b6129c4576040517f08c379a00000000000000000000000000000000000000000000000000000000081526004016129bb90613d00565b60405180910390fd5b600060608673ffffffffffffffffffffffffffffffffffffffff1685876040516129ee91906139c6565b60006040518083038185875af1925050503d8060008114612a2b576040519150601f19603f3d011682016040523d82523d6000602084013e612a30565b606091505b5091509150612a40828286612a4c565b92505050949350505050565b60608315612a5c57829050612aac565b600083511115612a6f5782518084602001fd5b816040517f08c379a0000000000000000000000000000000000000000000000000000000008152600401612aa39190613a9e565b60405180910390fd5b9392505050565b826004601f01602090048101928215612b3c5791602002820160005b83821115612b0d57835183826101000a81548160ff021916908360ff1602179055509260200192600101602081600001049283019260010302612acf565b8015612b3a5782816101000a81549060ff0219169055600101602081600001049283019260010302612b0d565b505b509050612b499190612bb7565b5090565b6040518060800160405280600490602082028036833780820191505090505090565b50805460018160011615610100020316600290046000825580601f10612b955750612bb4565b601f016020900490600052602060002090810190612bb39190612bdf565b5b50565b5b80821115612bdb57600081816101000a81549060ff021916905550600101612bb8565b5090565b5b80821115612bf8576000816000905550600101612be0565b5090565b600081359050612c0b81613f6f565b92915050565b600082601f830112612c2257600080fd5b8135612c35612c3082613d83565b613d56565b91508181835260208401935060208101905083856020840282011115612c5a57600080fd5b60005b83811015612c8a5781612c708882612d9b565b845260208401935060208301925050600181019050612c5d565b5050505092915050565b600082601f830112612ca557600080fd5b6004612cb8612cb382613dab565b613d56565b91508183856020840282011115612cce57600080fd5b60005b83811015612cfe5781612ce48882612db0565b845260208401935060208301925050600181019050612cd1565b5050505092915050565b600081359050612d1781613f86565b92915050565b600081359050612d2c81613f9d565b92915050565b600081519050612d4181613f9d565b92915050565b600082601f830112612d5857600080fd5b8135612d6b612d6682613dcd565b613d56565b91508082526020830160208301858383011115612d8757600080fd5b612d92838284613f1c565b50505092915050565b600081359050612daa81613fb4565b92915050565b600081359050612dbf81613fcb565b92915050565b600060208284031215612dd757600080fd5b6000612de584828501612bfc565b91505092915050565b60008060408385031215612e0157600080fd5b6000612e0f85828601612bfc565b9250506020612e2085828601612bfc565b9150509250929050565b600080600060608486031215612e3f57600080fd5b6000612e4d86828701612bfc565b9350506020612e5e86828701612bfc565b9250506040612e6f86828701612d9b565b9150509250925092565b60008060008060808587031215612e8f57600080fd5b6000612e9d87828801612bfc565b9450506020612eae87828801612bfc565b9350506040612ebf87828801612d9b565b925050606085013567ffffffffffffffff811115612edc57600080fd5b612ee887828801612d47565b91505092959194509250565b60008060008060e08587031215612f0a57600080fd5b6000612f1887828801612bfc565b9450506020612f2987828801612c94565b93505060a0612f3a87828801612d9b565b92505060c0612f4b87828801612d9b565b91505092959194509250565b60008060408385031215612f6a57600080fd5b6000612f7885828601612bfc565b9250506020612f8985828601612d08565b9150509250929050565b60008060408385031215612fa657600080fd5b6000612fb485828601612bfc565b9250506020612fc585828601612d9b565b9150509250929050565b600060208284031215612fe157600080fd5b600082013567ffffffffffffffff811115612ffb57600080fd5b61300784828501612c11565b91505092915050565b60006020828403121561302257600080fd5b600061303084828501612d1d565b91505092915050565b60006020828403121561304b57600080fd5b600061305984828501612d32565b91505092915050565b60006020828403121561307457600080fd5b600061308284828501612d9b565b91505092915050565b6000806040838503121561309e57600080fd5b60006130ac85828601612d9b565b92505060206130bd85828601612d9b565b9150509250929050565b60006130d383836139a8565b60208301905092915050565b6130e881613e9b565b82525050565b6130f781613e89565b82525050565b61310681613e18565b6131108184613e46565b925061311b82613df9565b8060005b8381101561314c57815161313387826130c7565b965061313e83613e39565b92505060018101905061311f565b505050505050565b61315d81613ead565b82525050565b600061316e82613e23565b6131788185613e51565b9350613188818560208601613f2b565b61319181613f5e565b840191505092915050565b60006131a782613e23565b6131b18185613e62565b93506131c1818560208601613f2b565b80840191505092915050565b60006131d882613e2e565b6131e28185613e6d565b93506131f2818560208601613f2b565b6131fb81613f5e565b840191505092915050565b600061321182613e2e565b61321b8185613e7e565b935061322b818560208601613f2b565b80840191505092915050565b6000815460018116600081146132545760018114613279576132bd565b607f60028304166132658187613e7e565b955060ff19831686528086019350506132bd565b600282046132878187613e7e565b955061329285613e03565b60005b828110156132b457815481890152600182019150602081019050613295565b82880195505050505b505092915050565b60006132d2602283613e6d565b91507f456e756d657261626c655365743a20696e646578206f7574206f6620626f756e60008301527f64730000000000000000000000000000000000000000000000000000000000006020830152604082019050919050565b6000613338603283613e6d565b91507f4552433732313a207472616e7366657220746f206e6f6e20455243373231526560008301527f63656976657220696d706c656d656e74657200000000000000000000000000006020830152604082019050919050565b600061339e602683613e6d565b91507f4f776e61626c653a206e6577206f776e657220697320746865207a65726f206160008301527f64647265737300000000000000000000000000000000000000000000000000006020830152604082019050919050565b6000613404601c83613e6d565b91507f4552433732313a20746f6b656e20616c7265616479206d696e746564000000006000830152602082019050919050565b6000613444602483613e6d565b91507f4552433732313a207472616e7366657220746f20746865207a65726f2061646460008301527f72657373000000000000000000000000000000000000000000000000000000006020830152604082019050919050565b60006134aa601983613e6d565b91507f4552433732313a20617070726f766520746f2063616c6c6572000000000000006000830152602082019050919050565b60006134ea602683613e6d565b91507f416464726573733a20696e73756666696369656e742062616c616e636520666f60008301527f722063616c6c00000000000000000000000000000000000000000000000000006020830152604082019050919050565b6000613550602c83613e6d565b91507f4552433732313a206f70657261746f7220717565727920666f72206e6f6e657860008301527f697374656e7420746f6b656e00000000000000000000000000000000000000006020830152604082019050919050565b60006135b6603883613e6d565b91507f4552433732313a20617070726f76652063616c6c6572206973206e6f74206f7760008301527f6e6572206e6f7220617070726f76656420666f7220616c6c00000000000000006020830152604082019050919050565b600061361c602a83613e6d565b91507f4552433732313a2062616c616e636520717565727920666f7220746865207a6560008301527f726f2061646472657373000000000000000000000000000000000000000000006020830152604082019050919050565b6000613682602283613e6d565b91507f456e756d657261626c654d61703a20696e646578206f7574206f6620626f756e60008301527f64730000000000000000000000000000000000000000000000000000000000006020830152604082019050919050565b60006136e8602083613e6d565b91507f4552433732313a206d696e7420746f20746865207a65726f20616464726573736000830152602082019050919050565b6000613728602c83613e6d565b91507f4552433732313a20617070726f76656420717565727920666f72206e6f6e657860008301527f697374656e7420746f6b656e00000000000000000000000000000000000000006020830152604082019050919050565b600061378e602083613e6d565b91507f4f776e61626c653a2063616c6c6572206973206e6f7420746865206f776e65726000830152602082019050919050565b60006137ce602983613e6d565b91507f4552433732313a207472616e73666572206f6620746f6b656e2074686174206960008301527f73206e6f74206f776e00000000000000000000000000000000000000000000006020830152604082019050919050565b6000613834602f83613e6d565b91507f4552433732314d657461646174613a2055524920717565727920666f72206e6f60008301527f6e6578697374656e7420746f6b656e00000000000000000000000000000000006020830152604082019050919050565b600061389a602183613e6d565b91507f4552433732313a20617070726f76616c20746f2063757272656e74206f776e6560008301527f72000000000000000000000000000000000000000000000000000000000000006020830152604082019050919050565b6000613900603183613e6d565b91507f4552433732313a207472616e736665722063616c6c6572206973206e6f74206f60008301527f776e6572206e6f7220617070726f7665640000000000000000000000000000006020830152604082019050919050565b6000613966601d83613e6d565b91507f416464726573733a2063616c6c20746f206e6f6e2d636f6e74726163740000006000830152602082019050919050565b6139a281613f05565b82525050565b6139b181613f0f565b82525050565b6139c081613f0f565b82525050565b60006139d2828461319c565b915081905092915050565b60006139e98285613237565b91506139f58284613206565b91508190509392505050565b6000602082019050613a1660008301846130ee565b92915050565b6000608082019050613a3160008301876130df565b613a3e60208301866130ee565b613a4b6040830185613999565b8181036060830152613a5d8184613163565b905095945050505050565b6000608082019050613a7d60008301846130fd565b92915050565b6000602082019050613a986000830184613154565b92915050565b60006020820190508181036000830152613ab881846131cd565b905092915050565b60006020820190508181036000830152613ad9816132c5565b9050919050565b60006020820190508181036000830152613af98161332b565b9050919050565b60006020820190508181036000830152613b1981613391565b9050919050565b60006020820190508181036000830152613b39816133f7565b9050919050565b60006020820190508181036000830152613b5981613437565b9050919050565b60006020820190508181036000830152613b798161349d565b9050919050565b60006020820190508181036000830152613b99816134dd565b9050919050565b60006020820190508181036000830152613bb981613543565b9050919050565b60006020820190508181036000830152613bd9816135a9565b9050919050565b60006020820190508181036000830152613bf98161360f565b9050919050565b60006020820190508181036000830152613c1981613675565b9050919050565b60006020820190508181036000830152613c39816136db565b9050919050565b60006020820190508181036000830152613c598161371b565b9050919050565b60006020820190508181036000830152613c7981613781565b9050919050565b60006020820190508181036000830152613c99816137c1565b9050919050565b60006020820190508181036000830152613cb981613827565b9050919050565b60006020820190508181036000830152613cd98161388d565b9050919050565b60006020820190508181036000830152613cf9816138f3565b9050919050565b60006020820190508181036000830152613d1981613959565b9050919050565b6000602082019050613d356000830184613999565b92915050565b6000602082019050613d5060008301846139b7565b92915050565b6000604051905081810181811067ffffffffffffffff82111715613d7957600080fd5b8060405250919050565b600067ffffffffffffffff821115613d9a57600080fd5b602082029050602081019050919050565b600067ffffffffffffffff821115613dc257600080fd5b602082029050919050565b600067ffffffffffffffff821115613de457600080fd5b601f19601f8301169050602081019050919050565b6000819050919050565b60008190508160005260206000209050919050565b600060049050919050565b600081519050919050565b600081519050919050565b6000602082019050919050565b600081905092915050565b600082825260208201905092915050565b600081905092915050565b600082825260208201905092915050565b600081905092915050565b6000613e9482613ee5565b9050919050565b6000613ea682613ee5565b9050919050565b60008115159050919050565b60007fffffffff0000000000000000000000000000000000000000000000000000000082169050919050565b600073ffffffffffffffffffffffffffffffffffffffff82169050919050565b6000819050919050565b600060ff82169050919050565b82818337600083830152505050565b60005b83811015613f49578082015181840152602081019050613f2e565b83811115613f58576000848401525b50505050565b6000601f19601f8301169050919050565b613f7881613e89565b8114613f8357600080fd5b50565b613f8f81613ead565b8114613f9a57600080fd5b50565b613fa681613eb9565b8114613fb157600080fd5b50565b613fbd81613f05565b8114613fc857600080fd5b50565b613fd481613f0f565b8114613fdf57600080fd5b5056fe4552433732313a207472616e7366657220746f206e6f6e20455243373231526563656976657220696d706c656d656e7465724552433732313a206f776e657220717565727920666f72206e6f6e6578697374656e7420746f6b656ea264697066735822122044e9c9fd23ee1d8728aab835adb9b5fedeec49a9cb6c0a751342404b750c86b164736f6c634300060c0033",
  "immutableReferences": {},
  "source": "pragma solidity 0.6.12;\npragma experimental ABIEncoderV2;\n\nimport \"@openzeppelin/contracts/token/ERC721/ERC721.sol\";\nimport \"@openzeppelin/contracts/utils/Counters.sol\";\nimport \"@openzeppelin/contracts/access/Ownable.sol\";\n\ncontract LotteryNFT is ERC721, Ownable {\n    using Counters for Counters.Counter;\n    Counters.Counter private _tokenIds;\n\n    mapping (uint256 => uint8[4]) public lotteryInfo;\n    mapping (uint256 => uint256) public lotteryAmount;\n    mapping (uint256 => uint256) public issueIndex;\n    mapping (uint256 => bool) public claimInfo;\n\n    constructor() public ERC721(\"GoldenGoose Lottery Ticket\", \"GLT\") {}\n\n    function newLotteryItem(address player, uint8[4] memory _lotteryNumbers, uint256 _amount, uint256 _issueIndex)\n        external onlyOwner\n        returns (uint256)\n    {\n        _tokenIds.increment();\n\n        uint256 newItemId = _tokenIds.current();\n        _mint(player, newItemId);\n        lotteryInfo[newItemId] = _lotteryNumbers;\n        lotteryAmount[newItemId] = _amount;\n        issueIndex[newItemId] = _issueIndex;\n        // claimInfo[newItemId] = false; default is false here\n        // _setTokenURI(newItemId, tokenURI);\n\n        return newItemId;\n    }\n\n    function getLotteryNumbers(uint256 tokenId) external view returns (uint8[4] memory) {\n        return lotteryInfo[tokenId];\n    }\n    function getLotteryAmount(uint256 tokenId) external view returns (uint256) {\n        return lotteryAmount[tokenId];\n    }\n    function getLotteryIssueIndex(uint256 tokenId) external view returns (uint256) {\n        return issueIndex[tokenId];\n    }\n    function claimReward(uint256 tokenId) external onlyOwner {\n        claimInfo[tokenId] = true;\n    }\n    function multiClaimReward(uint256[] memory tokenIds) external onlyOwner {\n        for (uint i = 0; i < tokenIds.length; i++) {\n            claimInfo[tokenIds[i]] = true;\n        }\n    }\n    function burn(uint256 tokenId) external onlyOwner {\n        _burn(tokenId);\n    }\n    function getClaimStatus(uint256 tokenId) external view returns (bool) {\n        return claimInfo[tokenId];\n    }\n}\n",
  "sourcePath": "/home/dream/dev/goose-contracts/contracts/lottery/LotteryNFT.sol",
  "compiler": {
    "name": "solc",
    "version": "0.6.12+commit.27d51765.Emscripten.clang"
  },
  "schemaVersion": "3.4.1",
  "updatedAt": "2021-06-10T06:40:56.796Z",
  "devdoc": {
    "kind": "dev",
    "methods": {
      "approve(address,uint256)": {
        "details": "See {IERC721-approve}."
      },
      "balanceOf(address)": {
        "details": "See {IERC721-balanceOf}."
      },
      "baseURI()": {
        "details": "Returns the base URI set via {_setBaseURI}. This will be automatically added as a prefix in {tokenURI} to each token's URI, or to the token ID if no specific URI is set for that token ID."
      },
      "getApproved(uint256)": {
        "details": "See {IERC721-getApproved}."
      },
      "isApprovedForAll(address,address)": {
        "details": "See {IERC721-isApprovedForAll}."
      },
      "name()": {
        "details": "See {IERC721Metadata-name}."
      },
      "owner()": {
        "details": "Returns the address of the current owner."
      },
      "ownerOf(uint256)": {
        "details": "See {IERC721-ownerOf}."
      },
      "renounceOwnership()": {
        "details": "Leaves the contract without owner. It will not be possible to call `onlyOwner` functions anymore. Can only be called by the current owner. NOTE: Renouncing ownership will leave the contract without an owner, thereby removing any functionality that is only available to the owner."
      },
      "safeTransferFrom(address,address,uint256)": {
        "details": "See {IERC721-safeTransferFrom}."
      },
      "safeTransferFrom(address,address,uint256,bytes)": {
        "details": "See {IERC721-safeTransferFrom}."
      },
      "setApprovalForAll(address,bool)": {
        "details": "See {IERC721-setApprovalForAll}."
      },
      "supportsInterface(bytes4)": {
        "details": "See {IERC165-supportsInterface}. Time complexity O(1), guaranteed to always use less than 30 000 gas."
      },
      "symbol()": {
        "details": "See {IERC721Metadata-symbol}."
      },
      "tokenByIndex(uint256)": {
        "details": "See {IERC721Enumerable-tokenByIndex}."
      },
      "tokenOfOwnerByIndex(address,uint256)": {
        "details": "See {IERC721Enumerable-tokenOfOwnerByIndex}."
      },
      "tokenURI(uint256)": {
        "details": "See {IERC721Metadata-tokenURI}."
      },
      "totalSupply()": {
        "details": "See {IERC721Enumerable-totalSupply}."
      },
      "transferFrom(address,address,uint256)": {
        "details": "See {IERC721-transferFrom}."
      },
      "transferOwnership(address)": {
        "details": "Transfers ownership of the contract to a new account (`newOwner`). Can only be called by the current owner."
      }
    },
    "version": 1
  },
  "userdoc": {
    "kind": "user",
    "methods": {},
    "version": 1
  }
}